:020000040800F2
:10000000800A0020B90100088B4200083F3A00082E
:100010008942000859180008814A000800000000C1
:10002000000000000000000000000000DD430008A8
:10003000F11900080000000051430008794400084D
:10004000D3010008D3010008D3010008D301000840
:10005000D3010008D3010008D3010008D301000830
:10006000D3010008D3010008D3010008D301000820
:10007000D3010008D3010008D3010008D301000810
:10008000D3010008D3010008D3010008D301000800
:10009000D3010008D3010008D3010008D3010008F0
:1000A000D3010008D3010008D3010008D3010008E0
:1000B000D3010008D3010008D3010008D3010008D0
:1000C000D3010008D3010008D3010008D3010008C0
:1000D000D3010008754A0008D3010008D3010008C5
:1000E000D3010008D3010008D301000800F002F892
:1000F00000F053F80AA090E8000C82448344AAF16F
:100100000107DA4501D100F048F8AFF2090EBAE86C
:100110000F0013F0010F18BFFB1A43F0010318473B
:1001200084590000A4590000103A24BF78C878C14F
:10013000FAD8520724BF30C830C144BF04680C60ED
:10014000704700000023002400250026103A28BF35
:1001500078C1FBD8520728BF30C148BF0B60704739
:10016000662905F09283642900F08480732900F0E9
:10017000E884002070471FB500F04EFD0400002009
:10018000002105F011F8401C60600020002104F0FF
:10019000F5FFE0601FBD10B510BD00F0A7FE1146D1
:1001A000FFF7E9FF04F0A2FD00F0D3FE03B4FFF770
:1001B000F2FF03BC00F016FF0948804709480047DA
:1001C000FEE7FEE7FEE7FEE7FEE7FEE7FEE7FEE707
:1001D000FEE7FEE704480549054A064B7047000064
:1001E000F5440008ED00000880040020800A00208B
:1001F00080060020800600200FB41CB5074B06AA1D
:100200007B4469460090059800F071FC0020694627
:1002100000F080FC1CBC5DF814FB0000110900001C
:1002200070B50C460546012A05D02878800600D511
:10023000EA69002302E0012305E05B1C934202D23D
:10024000E05C0028F9D1A869E618C01AA861286AFC
:10025000184428622846AFF3008004E0D5E9012164
:1002600014F8010B9047B442F8D32846AFF300804E
:1002700070BD00002DE9F041064600241068752984
:10028000314616A510D0AFF30080002802DA4042B4
:1002900013A507E031688A0701D512A502E04907D6
:1002A00004D511A5012401E0AFF3008000210A224A
:1002B00006F1240709E0B0FBF2FCB0FBF2F302FB0D
:1002C0001C00303078541846491C0028F3D12346CE
:1002D0002A463046BDE8F04100F09BB9000000001E
:1002E0002D0000002B000000200000002DE9F04749
:1002F0004FF0000A89460446C0F820A02046E16875
:100300008847002876D0252806D0D4E901219047D7
:10031000206A401C2062F1E7E168204600258847FA
:10032000C4F81CA006460027C4F818A02A2E09D03D
:10033000304604F0ECFB38B304EB8708303EC8F8D5
:10034000186019E059F8041B204604EB87029161FC
:10035000E1688847012F064618D1E069002820DAB5
:1003600025F020051DE0D8F8180000EB800006EB12
:1003700040003038C8F818002046E1688847064633
:1003800004F0C5FB0028EED1012F0AD02E2E08D193
:100390002046E16888477F1C0646022F45F020056D
:1003A000C4DBA069002803DA404245F00105A061E2
:1003B000E80701D025F01005B6B1A6F141001928D3
:1003C00002D8203645F400654A463146204625606D
:1003D0004D46FFF7C5FE58B1012806D0ED1D25F0AA
:1003E000070000F1080989E704E005F1040985E741
:1003F00030468AE7206ABDE8F08770B5064600F00F
:10040000F9F80468054630460A22002100F09DFBF9
:100410002C6070BD014A00F0D1BB00003400002008
:1004200040EA0103024630B59B0710D14FF001347A
:1004300000E008C208C91D1B9D4315EAC41FF8D07F
:1004400013F0FF0102F8011B0DD01B0AF8E711F8A9
:10045000013B002B02F8013B05D011F8013B002BBA
:1004600002F8013BF3D130BD10B5431C02E010F897
:10047000011B71B18107FAD14FF0013202C88C1A09
:100480008C4314EAC211F9D0C01A0A0603D0C01E68
:1004900010BDC01A10BD0A0401D0801E10BD090293
:1004A000FCD0401E10BD40EA010370B59B072ED161
:1004B0004FF00136042A2AD308C810C99D1B9D435A
:1004C000121F15EAC61517D0D8B2E1B2401A50EA89
:1004D000056110D198B2A1B2401A50EA05410AD183
:1004E00023F07F4024F07F41401A50EA052102D1D9
:1004F000180EA0EB146070BDA342DBD018BA21BA6D
:10050000884201D9012070BD4FF0FF3070BD0AB99B
:10051000002070BD10F8013B11F8014B63B1A342FC
:100520000AD1521E08D010F8013B11F8014B1BB143
:10053000A34201D1521EEDD1181B70BD10B5203A57
:10054000C0F00B80B1E81850203AA0E81850B1E88C
:100550001850A0E81850BFF4F5AF5FEA027C24BF42
:10056000B1E81850A0E8185044BF18C918C0BDE839
:1005700010405FEA827C24BF51F8043B40F8043B02
:1005800008BF7047D20728BF31F8023B48BF11F8B7
:10059000012B28BF20F8023B48BF00F8012B704711
:1005A0004FF0000200B5134694469646203922BF0C
:1005B000A0E80C50A0E80C50B1F12001BFF4F7AF57
:1005C000090728BFA0E80C5048BF0CC05DF804EB39
:1005D000890028BF40F8042B08BF704748BF20F8A7
:1005E000022B11F0804F18BF00F8012B70477047A5
:1005F00070477047004870471C04002010B5FFF793
:10060000F9FF006810BD10B50446FFF7F3FF046062
:1006100010BD2DE9F0470D4699469246044600F17B
:1006200024080168880604D5E06921F010012160E2
:1006300000E00120A84201DD471B00E00027A1697E
:100640007A1902EB0900081AA0612078C00602D4CA
:100650002046AFF30080002608E0D4E901211AF813
:1006600006009047206A401C761C20624E45F4DB51
:100670002078C0060AD52046AFF3008006E0D4E912
:10068000012130209047206A401C2062381EA7F1CB
:100690000107F4DC07E0D4E9012118F805009047D0
:1006A000206A401C2062281EA5F10105F3DC2046CB
:1006B000AFF300802078000602D50220BDE8F08765
:1006C0000120FBE770472DE9FF4F0C461E464FF017
:1006D000FF378BB0D2E90001DDF860800A908A46CE
:1006E000C1F30A5505B93D46002108464FF0000008
:1006F000BAF1000F00F4400005DA00EB80004FF47F
:10070000400101EA50004FEA9059B9F1010F00DDB4
:10071000B9460A9850EA4A000ED044F61050A5F2A5
:10072000FF3545432F14B8F1000F1ED07542291E26
:100730001EDDC9F100021CE0B8F1010F4FF000000E
:1007400001D0302103E0F24305E02154401CB042C7
:10075000FBDB30460022002121540B99C1F80880B0
:10076000C1E900200FB0BDE8F08FBD1B6D1CDEE7B6
:100770004A4600DA694206A800F028FB06AB93E877
:10078000070003AB83E8070050460A9900F031FCEC
:100790008DE80700A0F500501F3800900398002D49
:1007A0000ADD42F21F014A460844002303A90390D0
:1007B000684600F09AFE09E0A0F500504A461F384E
:1007C000002303A90390684600F0A4FE8DE807000B
:1007D0000004000C03D04FF0FF30410800E0104649
:1007E000B8F1000F03D00022009215461EE0751EDE
:1007F00005D400F015FA303262556D1EF9D5B346B6
:100800000122084302D000227F1C04E02078302817
:1008100001D100227F1E002A099784D01DE0112DEE
:1008200007DA00F0FDF9303262556D1C50EA010222
:10083000F5D1084302D00098C8B10EE00021681E2F
:1008400005E0235C625C63542254401E491C8142D3
:10085000F7DBAB46A81B401E0990002004F80B00F4
:100860000B98099AC0F80880C0E9002B7AE7112696
:100870004FF0000857E72DE9F04F88460446D21D97
:1008800022F0070191B0D1E90001CDE90A0104F09D
:100890000EF902460B98C00F01D02D2007E020680A
:1008A000810701D52B2002E0202101EAC000032AA4
:1008B000099001D0072A05DB03464146204600F097
:1008C000F5F90BE12078800601D5E06900E006200B
:1008D000B8F1650F814606D0B8F1660F18D0B8F1AF
:1008E000670F70D131E00020B9F1110F009001DBEA
:1008F000112301E009F101030AAA01A90CA8FFF7DD
:10090000E2FEDDE90C70002609F10105834647E0AF
:1009100001204B4600904FF000470AAA01A90CA8FD
:10092000FFF7D1FEDDE90DB00C995D46002610B948
:1009300009F101000D18B9EB050003D4C0F1FF3631
:1009400009F10105A5EB09002BE0B9F1010F01DA6E
:100950004FF001090020B9F1110F0090484601DD68
:10096000112300E003460AAA01A90CA8FFF7ABFE79
:10097000DDE90C704D4600268346207800070AD436
:10098000AB4500DA5D4601A8012D04DD411911F8DF
:10099000011C302907D04F4502DA17F1040F04DAA1
:1009A000012082460FE06D1EEEE7002F02DCED1BFA
:1009B0003E4403E0781CA84200DD7D1CB81B00F11A
:1009C000010A4FF000472078000703D4AA4501DB55
:1009D0004FF0FF3A0021B7F1004F0DF143088DF8B9
:1009E000431024D002202B23002F01DA7F422D2335
:1009F0000A21021EA0F1010000DC5FB197FBF1FCAF
:100A000097FBF1F201FB1C7C17460CF1300C08F847
:100A100001CDEEE7A8F1010003702188090501D599
:100A2000452100E06521A0F1010800F8011C0998AA
:100A30000FA9A1EB0807FF1D00B10120411901EB2F
:100A4000EA70A1693844081A401EA0612078C006E7
:100A500002D42046AFF30080099828B1D4E90121DF
:100A60009047206A401C20622078C00622D520468C
:100A7000AFF300801EE0002E04DBB34502DD01A8C9
:100A8000805D00E03020D4E901219047206A401CBD
:100A90002062761CAAF101005FEA000A0AD100F088
:100AA000BBF8C0680168405CD4E901219047206A26
:100AB000401C2062281EA5F10105DCDC07E0D4E91A
:100AC000012118F8010B9047206A401C2062381E53
:100AD000A7F10107F3DC2046AFF30080032011B03B
:100AE00041E6000001694A1C02610878704700B5C0
:100AF0008FB0CDE901310021059105497944CDE957
:100B0000031011466846FFF7F1FB0FB000BD00006F
:100B1000E5FFFFFF0A6802F8010B0A60704710B595
:100B2000436913B1AFF3008001E0FFF779FB0120C7
:100B300010BD127800F124010A7000224A700122CF
:100B4000EDE711684FF0FF32E9E72DE9F0479146F4
:100B50000F4680460446002614F8015B2DB100F0D4
:100B600053F80068405DC007F6D12B2D02D02D2D23
:100B700018D0641E4A463946204600F0D7F827B1FF
:100B80003968A14201D1C7F800804FF00204710515
:100B90000BD54042002803DDFFF72CFD0460A007C1
:100BA000BDE8F08746F48066E4E70028F8DAFFF74E
:100BB00021FD04606FF00040F2E700002DE9F041F4
:100BC00015460E46040002D12C6804B90BA4204639
:100BD00000F07EF90444207870B12746314638464B
:100BE00000F066F90444207810B1002004F8010BED
:100BF00038462C60BDE8F0810027F9E700000000CE
:100C0000004870471C04002010B500F005F8001DD6
:100C100010BD00BF95450000004870473C0400200F
:100C200030B5B0F10A024FEA900E71F100034EEABE
:100C3000817EB0EB0E0061EB91014FEA101E4EEA8F
:100C4000017E10EB0E0041EB11114FEA102E4EEA1F
:100C5000016E10EB0E0041EB11214FEA104E4EEAEF
:100C6000014E10EB0E0041EB1141401841F1000123
:100C70004FEAD00040EA41704FEAD10110EB800505
:100C80004FEA810444EA907444EB01046D1944EB8B
:100C90000404521BA3414FF0000348BF0A3200D5A1
:100CA00030BD401C41F1000130BD00002DE9F04194
:100CB0001F46044603260168072A01F4006004DB8E
:100CC00008B116A505E016A503E008B115A500E0DA
:100CD00015A521F010002060A069C01EA0610FB111
:100CE000401EA0612046AFF300804FB1D4E901213E
:100CF00038469047206A401C2062C01C206206E0F3
:100D0000206AFAE7D4E9012115F8010B9047761E15
:100D1000F8D22046AFF30080BDE8F0814E414E008E
:100D20006E616E00494E4600696E66002DE9F05F07
:100D3000824615468B4600270AF10104B946007821
:100D4000302801D09DB113E014F8010B0127782859
:100D500003D0582801D045B10AE00DB1102D07D1BC
:100D6000002714F8010B102502E0082500E00A25F1
:100D70000026B0460EE005FB080005FB06F1012742
:100D80001FFA80F801EB1046B6F5803F00D3B94654
:100D900014F8010B294600F0CEF80028EBDABBF17D
:100DA000000F05D00FB1641E00E05446CBF80040A0
:100DB000B9F1000F06D0FFF71DFC02210160C81E2B
:100DC000BDE8F09F48EA0640FAE700002DE9F04749
:100DD000814616468AB0354878440DC88DE80D0026
:100DE00032487844801C03AC0DC884E80D0041F6FD
:100DF0009B300844372190FBF1F290FBF1F5A5F10F
:100E0000800501FB12041B3C02D56442012000E076
:100E10000020DFF898A080460027FA44AAF1BE0A15
:100E20000EE0E0070AD03246684607EB470101238F
:100E30000AEB810100F06EFB8DE8070064107F1C57
:100E4000002CEED1194F7F44AE3F19E0E80715D0D2
:100E500007EB04100DF1180A90E80E008AE80E0066
:100E6000C068F04201D1981908903246012306A9C2
:100E700003A800F04FFB03AB83E807006D10641C70
:100E8000002DE3D14FF0010332466946B8F1000F5F
:100E900003A802D000F029FB01E000F03BFBC9E908
:100EA0000001C9F808200AB0BDE8F087B04C000086
:100EB00030B503461D781DB10A4603E0AC4201D1AE
:100EC000181A30BD12F8014B002CF7D15B1CF1E76A
:100ED00030B503461D783DB10A4612F8014B1CB1EE
:100EE000AC42FAD15B1CF5E7181A30BD7546FFF726
:100EF00087FEAE4605006946534620F0070085464A
:100F000018B020B5FFF766F9BDE820404FF00006A5
:100F10004FF000074FF000084FF0000B21F00701E1
:100F2000AC46ACE8C009ACE8C009ACE8C009ACE824
:100F3000C0098D4670473A2800D2303820F0200290
:100F4000412A01D3A2F13700884201D34FF0FF308C
:100F5000704710B50446AFF300802046BDE810404E
:100F6000FFF724B94FF0013C50F8042B51F8043B33
:100F70009A4221D1A2EB0C03934313EACC1317D16D
:100F800050F8042B51F8043B9A4215D1A2EB0C0304
:100F9000934313EACC130BD150F8042B51F8043BC4
:100FA0009A4209D1A2EB0C03934313EACC13DBD092
:100FB0004FF00000704700BFD01A01BAB1FA81F1BA
:100FC00001F0180122FA01F0CB40C1F12001DBB29F
:100FD000C0B2C01A2CFA01F3D11A914311EAC3111D
:100FE000E6D1704701491820ABBEFEE7260002009B
:100FF00070475FEA400C08BF91F0000F4FEA8C2366
:101000004FEAC12243EA51514FEA1C5018BF00F584
:10101000F0404FEA300018BF41F000415FEA6C5CDD
:1010200000F02980BCF1FF3F08BF40F080407047CE
:10103000130C06BF12044FF0100C4FF0000C130EEF
:1010400004BF12020CF1080C130F04BF12010CF1C3
:10105000040C930F04BF92000CF1020CD30F04BFD9
:1010600052000CF1010C11464FF00002A0F11F00DC
:10107000A0EB0C00704711F0004F08BF704731F033
:1010800000413FF4D5AF0B0C06BF09044FF0100C24
:101090004FF0000C0B0E04BF09020CF1080C0B0FF3
:1010A00004BF09010CF1040C8B0F04BF89000CF183
:1010B000020CCB0F04BF49000CF1010CCCF1200352
:1010C000A0EB0C0022FA03F302FA0CF241EA03014E
:1010D00000F10100704720F07F4C80EA030023F00C
:1010E0007F47ACEB070303F57C5300F0004003F1AE
:1010F000FF032DE980494FEA154B09B44FEA144329
:1011000025EA0B4E24EA03480FF2042606EB1327C8
:1011100049083E785FEA320203FB0667C7F500071D
:1011200007FB06F64FEA54374FEAD64606F10206A9
:1011300007FB066CCCF1005C4FEA1C472CEA074C1D
:1011400007FB06F40CFB06F504EB15464FEA961672
:1011500034BF00204FF000404FEAD13706FB07FCB8
:101160004FEA1C4C0CFB0BF7D21B03FB0CF761EB9B
:1011700007010CFB0EF7B0EB074072EB17420CFBBC
:1011800008F734BFA2EB0742B2EB074261EB17410D
:101190004FEA0C444FEA910706FB07FC4FEA1C4C50
:1011A0000CFB0BF7B0EBC74072EB573203FB0CF7AD
:1011B00034BFA2EBC742B2EBC74261EB57310CFB25
:1011C0000EF7B0EBC70072EB57720CFB08F734BF99
:1011D000A2EBC702B2EBC70261EB5771039F4FEA64
:1011E000816141EA921104EBCC044FEAD1374FEA16
:1011F000826206FB07FC42EA90124FEA80604FEAE7
:101200001C4C0CFB0BF7D21B03FB0CF761EB07012B
:101210000CFB0EF7B0EB074072EB17420CFB08F724
:1012200034BFA2EB0742B2EB074261EB17414FEA32
:101230008C554FEA910704EB9C2406FB07FC4FEA10
:101240001C4C0CFB0BF7B0EBC74072EB573203FBA7
:101250000CF734BFA2EBC742B2EBC74261EB573188
:101260000CFB0EF7B0EBC70072EB57720CFB08F7E4
:1012700034BFA2EBC702B2EBC70261EB577115EBAB
:101280004C254FEA816141EA92114FEA82624FEAAE
:10129000D13742EA901206FB07FC44F100044FEA02
:1012A00080604FEA1C4C0CFB0BF7D21B03FB0CF7C6
:1012B00061EB07010CFB0EF7B0EB074072EB174236
:1012C0000CFB08F734BFA2EB0742B2EB074261EB1D
:1012D000174115EB1C154FEA813141EA92414FEA63
:1012E000823242EA90424FEA80304FEA0C7644F173
:1012F000000448EA03434EEA0B484FF0000EB2EBFD
:10130000080C71EB030724BF624639464EEB0E0E04
:101310004FF0000B0018524149414BEB0B0BB2EB65
:10132000080C71EB03077BF1000B24BF62463946C2
:101330004EEB0E0E4FF0000B0018524149414BEBA3
:101340000B0BB2EB080C71EB03077BF1000B24BF16
:10135000624639464EEB0E0E51EA020718BF46F0C0
:10136000010616EB0E7655F1000254F1000103D58B
:10137000BDE88901BDE80088BDE88901BDE80048F5
:10138000B619524141EB0101A3F10103704780807E
:101390007F7E7D7C7B7A79787776767574737271CF
:1013A00071706F6E6E6D6C6C6B6A6A696868676687
:1013B00066656464636362616160605F5F5E5E5D19
:1013C0005D5C5C5B5B5A5A5959585857575656558D
:1013D00055555454535352525251515050504F4FEF
:1013E0004F4E4E4D4D4D4C4C4C4B4B4B4A4A4A493F
:1013F0004949484848474747474646464545454482
:101400004444444343434342424242414141002B0E
:101410009C4630D477002BD01CB54FEA370703B475
:101420004FF010004FF01001BAF1000F06D0BCF1E0
:10143000000FDCBF40F0080040F008014FF0000052
:101440000FBCBDE810400BF1010BBBF1010F08BF51
:101450005FEA170722BF12F1010211F101014FF0FB
:10146000004143F1000300F0004043EA00007047F0
:10147000F9D35708D0E746EA064613F1400F4FEA82
:1014800016461FDD13F1200FDFBF16430A46002169
:1014900020335B42BED0C3F1200746EA064602FA7B
:1014A00007F74FEA164646EA0706C3F1200722FA75
:1014B00003F201FA07F721FA03F14FF0000342EAC1
:1014C0000702A7E746EA020646EA06464FEA16463C
:1014D00046EA0106BCBF46EA0646360C4FF000035A
:1014E0004FF000024FF0000194E72DE9804C9A463E
:1014F000934670B491E8380007C831EA400C48BF01
:1015000034EA430C03D5FFF7E6FDFFF780FFF0BC9C
:10151000BDE8008C2DE9804C9A46934670B491E862
:10152000380007C810F0804F08BF13F0804F03D178
:1015300000F005F8FFF76BFFF0BCBDE8008C20F071
:101540007F4780EA030023F07F4C07EB0C03A3F5F1
:101550007C5300F00040A3F1FE0392F0000F00F076
:10156000B38095F0000F00F077802DE901494FEA34
:1015700011404FEA144621EA004800FB06FC24EA29
:10158000064708FB06F607FB08F800FB07F718EB11
:1015900006484CEB164C4FEA124B18EB07484FEA43
:1015A00015464CEB174022EA0B4E0BFB06FC25EAD6
:1015B00006470EFB06F607FB0EFE0BFB07F71EEBBE
:1015C000064E4CEB164C4FF000061EEB074E4CEB54
:1015D000174B18EB0B0840F1000018EB0E0B58EB03
:1015E000000840F100008F1A4FF000013CBFC943D2
:1015F000661B14BFB5EB040C00213CBFC943F61BAE
:101600004FEA17444EEA8E0E27EA04454FEA1C477C
:1016100004FB07622CEA074C05FB07F70CFB05F6F9
:1016200004FB0CFC16EB074642EB174216EB0C468C
:1016300042EB1C421BEB060658EB0202414146EA14
:101640009E0601D5BDE80189B619524141EB010161
:10165000A3F10103BDE801894FEA14454FEA1147A0
:1016600024EA054621EA074C05FB07F406FB07F7C9
:101670000CFB06F105FB0CFC11EB074144EB174496
:101680004FEA124711EB0C4144EB1C4422EA074C91
:1016900005FB07F206FB07F70CFB06F605FB0CFC47
:1016A00016EB074642EB174216EB0C4642EB1C4585
:1016B0006A1854F1000148BF7047B619524141EB16
:1016C0000101A3F10103704795F0000F37D04FEAF5
:1016D00011424FEA144721EA024624EA074C02FB72
:1016E00007F106FB07F70CFB06F402FB0CFC14EBFE
:1016F000074441EB17414FEA154714EB0C4441EB0B
:101700001C4125EA074C02FB07F506FB07F70CFB1B
:1017100006F602FB0CFC16EB074645EB174516EBED
:101720000C4645EB1C42121951F1000148BF7047AD
:10173000B619524141EB0101A3F1010370474FEA91
:1017400014454FEA114724EA054621EA074C05FBF8
:1017500007F106FB07F70CFB06F24FF0000605FB4E
:101760000CFC12EB074241EB174112EB0C4251EB20
:101770001C4148BF7047921841EB0101A3F10103DE
:101780007047000070B5044600688168C943C90706
:1017900017D1816821F00101816000F0BFFD05468D
:1017A0000AE000BF00F0BAFD401B022804D92068FF
:1017B0008068C043C00706D020688068C043C00767
:1017C000F0D0002070BDA06A40F01000A062E06A76
:1017D00040F00100E062012070BD0000F8B5002675
:1017E0000446009600688168C943C9072DD0816806
:1017F00041F001018160164816490068B0FBF1F024
:1018000000E0401E00900028FBD100F087FD054657
:1018100016E000BF00F082FD401B022810D92068AE
:101820008068C043C0070BD0A06A40F01000A062DF
:10183000E06A40F00100E06284F824600120F8BD15
:1018400020688068C043C007E4D10020F8BD0000D4
:101850003000002040420F00FEE7000070B511A1EB
:10186000FEF7D8FD044610A10020FEF7D3FD002CA2
:1018700017D0002815D0FEF7C0FDC5B20BA1204639
:101880000BE000BFFEF7B9FDC0B2411E032902D82C
:10189000294602F0A5FD05A10020FEF7BBFD0028AA
:1018A000F0D170BD2E0000003B0000002C000000B5
:1018B00010B50C4608A10AE0FEF79FFDC0B2411E1C
:1018C000032902D8214600F045F803A10020FEF7C5
:1018D000A1FD0028F0D110BD2C3B000010B504463E
:1018E000042214A1FEF7DFFDB8B1052213A12046A2
:1018F000FEF7D9FDA0B1072212A12046FEF7D3FDC5
:1019000088B1062211A12046FEF7CDFD002810D196
:10191000A01DBDE81040FFF7A1BF0121201D04E07C
:101920000221601D01E00021E01DBDE81040FFF72D
:10193000BFBF10BD7361633A00000000746573742B
:101940003A00000070696E6F66663A0073657276E1
:101950006F3A00002DE9F0411E4C01281AD00228F0
:101960001DD01D4D03281FD0042830D120262C4621
:101970004027E1B1012921D0022928D10022314696
:10198000284600F0C5FC012239462046BDE8F0415A
:1019900000F0BEBC4FF4005625467710E9E74FF43F
:1019A000004625467710E4E780260127E1E700227C
:1019B0003146284600F0ACFC0022E5E7002239461B
:1019C000204600F0A5FC012231462846DEE7BDE8AE
:1019D000F0810000000C01400008014010B5012416
:1019E000E0B20021FFF7B6FF641C042CF8DD10BD47
:1019F0007047000000B5094A85B0914202DD03201E
:101A000005B000BD0146684602F0ACFA04490098F2
:101A1000884201DA0220F3E70020F1E7000070427B
:101A20003333334010B58AB004460021FFF792FFEC
:101A3000642000F063FB2146684602F093FA02211D
:101A40002046FFF787FFC82000F058FB214605A875
:101A500002F088FA00212046FFF77CFFDDE905123D
:101A600082F00044009803F09BFE214603F058FCEE
:101A7000064903F097FD064903F052FC05498842E8
:101A800002DD01200AB010BD0020FBE700007A440F
:101A9000000020410000C84272B6FEE7F8B50025FC
:101AA0000446009590F8240001280BD0012084F80A
:101AB00024002046FFF766FE2046FFF78FFE060053
:101AC00002D050E00220F8BDA06A20F4885040F017
:101AD0000200A062022001F03DF825490968B1FB2F
:101AE000F0F0400000E0401E00900028FBD120688C
:101AF000816841F00801816000F010FC074608E0B1
:101B000000F00CFCC01B0A2803D92068806800077D
:101B100015D4206880680007F2D42068816841F0FD
:101B20000401816000F0FAFB074612E000F0F6FBCA
:101B3000C01B0A280DD920688068400709D5A06A13
:101B400020F0020040F01000A06284F82450012030
:101B5000F8BD206880684007E8D4A06A20F0020041
:101B600040F00100A06284F824503046F8BD000027
:101B700030000020F8B50024009490F82420254679
:101B8000012A12D0012280F824204A681F23072A44
:101B90000DD20668776B521E02EB820293409F4380
:101BA0000B6893401F43776319E00220F8BD066875
:101BB0000D2A0AD2376BD21F02EB820293409F4359
:101BC0000B6893401F43376309E0F76A0D3A02EB55
:101BD000820293409F430B6893401F43F7620A6859
:101BE000072306680A2A0AD3F7680A3A02EB420278
:101BF00093409F438B6893401F43F76008E0376929
:101C000002EB420293409F438B6893401F4337612E
:101C10000A68102A01D0112A20D1124B02689A4278
:101C200017D193681B0219D4936843F4000393609F
:101C30000968102912D10C490C4A0968B1FBF2F16C
:101C400001EB8101490000E0491E00910029FBD110
:101C500004E0816A41F020018162012480F824506F
:101C60002046F8BD002401403000002040420F0013
:101C70000068C06C704700002DE9F0414FF000078C
:101C800004003D467ED0A06A002628B9E66284F8AA
:101C90002460204600F07EF82046FFF773FDA16A1D
:101CA000C90600D420B1A06A40F01000A06269E02B
:101CB000A16A21F4885141F00201A1626268E169E0
:101CC000237B0A4347EA43010A43A1684FF4807724
:101CD000B94209D0012907D05FF0000194F814C07F
:101CE000BCF1010F02D00AE03946F7E7F3B1A36A6D
:101CF00043F02003A362E36A43F00103E362236835
:101D0000D3F804C02CF4694C4CEA010CC3F804C0AD
:101D100021688B68DFF870C003EA0C0313438B6003
:101D2000A168B9420BD0012909D00CE0DFF85CC0F2
:101D3000A3690CEB43330B4343F40061DFE7218AD3
:101D40000D05A5F580152168CB6A23F470032B439C
:101D5000CB62216889680E4B1940914208D1E66236
:101D6000A16A21F0020141F00101A162BDE8F08108
:101D7000A06A20F0020040F01000A062E06A40F08B
:101D80000100E0620120F1E7FDF7E1FF00E0FFFF65
:101D9000FE0E1FFF00B585B0002100910191029158
:101DA000039100680E49884218D10E48816941F4B8
:101DB00000718161816901F400710491816941F0D0
:101DC000040181618069694600F0040004900F20DD
:101DD000009003200190044800F0A2F905B000BD76
:101DE0000024014000100240000801402DE9F843A2
:101DF00000270D460446009700F090FA80462068C0
:101E00008168C90508D5A06A40F02000A06284F866
:101E100024700120BDE8F8834168C90503D4C06A75
:101E200010F4700F2AD0022000F094FE3B4909689C
:101E3000B1FBF0F62068036939490B424FEA6101B2
:101E40004FEAA1121FD1C3684FEA611C13EA0C0FBD
:101E500019D103690B4225D1C068104222D1142048
:101E600023E0681C0AD02DB100F058FAA0EB08005E
:101E7000A84203D920680068800725D5206800683B
:101E80008007EED52DE003690B4202D1C1681142F3
:101E900006D0026923490A4206D1C068084203D12C
:101EA000542002E0292000E0FC204643009816E080
:101EB000681C11D02DB100F031FAA0EB0800A84247
:101EC0000AD90098B04207D2A06A40F00400A0628C
:101ED00084F8247003209DE70098401C0090B042D5
:101EE000E6D321686FF012000860A06A40F4007029
:101EF000A06220688068C0F3424007280CD1207B94
:101F000050B9A06A20F48070A062A06AC00403D413
:101F1000A06A40F00100A06200207BE730000020B2
:101F2000244992244992240070B5044690F8240074
:101F300001280DD0012084F824002046FFF74EFC34
:101F400002004FF0000005D084F82400104670BD58
:101F5000022070BDA16A40F20123994341F48071CF
:101F6000A1621F4D23681F49AB4218D10E6816F4B9
:101F7000702F14D0A66A46F48016A6620E68760505
:101F800005D5A66A26F4005646F48056A662A66ACF
:101F9000F6040AD5E66A26F00606E66206E0A66AB8
:101FA00026F48016A6625E68E9E7E06284F8240001
:101FB0006FF00200186020688368C3F34243072B68
:101FC00005D1A84208D1096811F4702F04D08168A6
:101FD00041F480118160B9E7816841F4A001F9E71B
:101FE000002801400424014010B5044690F8240064
:101FF000012807D0012084F824002046FFF7C2FB07
:1020000010B107E0022010BDA16A21F4885141F00F
:102010000101A162002184F8241010BD10B590F8D0
:1020200021100022022905D00421816380F820209C
:10203000012010BD01680B6823F00E030B600168DE
:102040000B6823F001030B6090F84030C46B012152
:1020500001FA03F3636080F8211080F82020104615
:1020600010BD000010B590F821100024022903D003
:102070000421816301243DE001680A6822F00E0218
:102080000A6001680A6822F001020A601A4A0168BF
:10209000914201D1012121E0174A1432914201D12C
:1020A00010211BE0144A2832914201D1891515E014
:1020B000114A3C32914201D189140FE00E4A50324C
:1020C000914202D14FF4803108E00B4A64329142D0
:1020D00002D14FF4801101E04FF08071064A083AB6
:1020E0005160012180F82110002180F82010416BFF
:1020F00001B18847204610BD0800024070B5044673
:1021000000F00CF90546601C02D004480078044435
:1021100000F004F9401BA042FAD370BD2400002057
:102120002DE9F84FDFF8B8910024A9F1040B2346FC
:102130000F2709F1040AABF1040EC9E00125A540FF
:102140002A40AA427DD1674ED1F804C0ACEB060804
:10215000B44532D014DCBCF1030F3AD009DCBCF139
:10216000000F2AD0BCF1010F1CD0BCF1020F31D1FD
:102170001DE0BCF1110F17D0BCF1120F2AD119E0EC
:10218000B8F5881F19D006DCB8F5803F15D0B8F532
:10219000801F1FD111E0B8F5001F0ED0B8F5041F45
:1021A00018D10AE0CB6815E0CB681B1D12E0CB68A4
:1021B00008330FE0CB680C330CE08B682BB1012B9C
:1021C0004FF0080303D0456104E0042302E00561F9
:1021D00000E00023FF2A01D8064601E000F10406D2
:1021E0004FEA840501D9A5F12005D6F8008007FA49
:1021F00005FC28EA0C0803FA05F548EA0508C6F8C4
:1022000000804D68ED0062D5374DAE6946F001069D
:10221000AE61AD6924F0030605F001050095334D6C
:1022200006EB050CDCF80850A607360F07FA06F88F
:1022300025EA0805DFF8B880404503D14FF00008D3
:1022400017E044E0DFF8AC80404502D14FF00108D0
:102250000FE0DFF8A480404502D14FF0020808E00B
:10226000DFF89880404502D14FF0030801E04FF0BD
:10227000040808FA06F848EA0508CCF808804D6812
:10228000D9F80060ED024D4601D5164300E09643B3
:102290002E604D68DAF80060AD02554601D5164350
:1022A00000E096432E604D68DBF80060AD035D46AC
:1022B00001D5164300E096432E604D68DEF80060BD
:1022C000ED03754601D5164300E096432E60641C6D
:1022D0000D682A46E5407FF431AFBDE8F88F000075
:1022E00008040140000011100010024000000140ED
:1022F00000080140000C01400010014000140140A2
:10230000C26821EA02030A4043EA024101617047C0
:102310000AB1016170470904FBE7000001488068C9
:10232000704700002400002070B5040025D094F808
:102330003D00002520B984F83C50204600F034FBD5
:10234000242084F83D002068016821F0010101602B
:102350002068016841F4004101602068016821F4AF
:102360000041016000F054FD4D4A6168914201D87E
:102370004C4900E04C49884201D2012070BD4B49D4
:102380002368B0FBF1F15E6826F03F060E435E6005
:102390006368934206D94FF4967359434FF47A73A6
:1023A000B1FBF3F12368491C1E6A26F03F06314356
:1023B00019626168914210D84900401EB0FBF1F2E9
:1023C000521CC2F30B02042A01D2042022E0B0FB0B
:1023D000F1F0401CC0F30B001CE0A268F2B301EB6B
:1023E000C10303EB0116431EB3FBF6F35B1C43F47E
:1023F00080431B0549D092B301EBC10202EB0111EE
:10240000401EB0FBF1F0401CC0F30B0040F48040D4
:1024100040F400402168CA694CF6FF739A431043A8
:10242000C861D4E9071001432068026822F0C002A5
:1024300011430160D4E9030101432068826848F236
:10244000FF339A4311438160D4E9050108432168B1
:10245000CA6822F0FF021043C86001E00EE016E0F7
:102460002068016841F0010101602564202084F8A2
:102470003D00256384F83E50002070BD01EB41060D
:10248000431EB3FBF6F35B1CB3E70120C2E701EB8D
:102490004101401EB0FBF1F0401CC0F30B00B7E758
:1024A000A086010080841E0000093D0040420F000C
:1024B0002DE9FF4F81B089460446FFF72FFF0546FF
:1024C00094F83D004FF0000820287DD11923012207
:1024D00050492046009501F0C9FB002874D194F8BA
:1024E0003C00012870D0012084F83C00206801687D
:1024F000C90703D1016841F001010160206801684A
:1025000021F400610160242084F83D000026266447
:102510004148E0624FF0011B20272068016841F428
:10252000807101600095002259462046049B01F00D
:102530009DFB50B120680068C00502D54FF40070C3
:102540002064032005B0BDE8F08F216809F0FE008B
:102550000861FFF7E3FE2168054648694969C0F351
:102560004000C1F380214FF0A00A0FE0FFF7D6FE34
:10257000411B0498814200D808B984F83DA0216825
:1025800048694969C0F34000C1F3802194F83D20B7
:10259000A02A02D008B90029E8D084F83D7020684C
:1025A0004169C943890716D4016841F4007101608B
:1025B0002068416980691923012216492046009547
:1025C00001F054FBB8B900E021E084F83D7084F8D4
:1025D0003C600020B6E7016841F4007101602168A9
:1025E0006FF480604861192301220A492046009552
:1025F00001F03CFB08B10120A4E7039808F10108B1
:1026000080458AD384F83D7084F83C60F3E702206B
:1026100098E70000020010000000FFFF2DE9FF4FC7
:1026200083B00025DDE910799A4693460446DDF82B
:1026300048800095FFF772FE064694F83D0020287A
:102640007CD11923012288492046009601F00EFB17
:102650000028F5D194F83C0001286FD0012084F8BF
:102660003C0020680168C90703D1016841F00101FD
:1026700001602068016821F400610160222084F873
:102680003D00402084F83E0025646762A4F82A904B
:10269000608D20857548E062CDE9008653465A4634
:1026A0002046049901F0E4F900287CD1208DDFF860
:1026B000C091202768B1012814D002282068016841
:1026C0001ED041F4806101602068416980690090FA
:1026D000BCE02068416981690091016841F40071A2
:1026E0000160B3E02068016821F48061016072B686
:1026F0002068416981690091016841F400710AE034
:1027000041F40061016072B62068416981690091FD
:10271000016821F48061016062B697E0032865D802
:1027200001280CD0022843464FF0000249462046BB
:1027300000960BD001F09AFAA8BB0CE091E032466B
:102740004146204601F038FB68BB72E001F08EFA8A
:1027500048BB72B633E02068016821F480610160F3
:1027600072B620680069616A0870606A401C606225
:10277000208D401E2085608D401E60853D4846F2BC
:10278000A8110068B0FBF1F0C0EBC00000EB8000C6
:102790000090401E009007D020684069C043400769
:1027A0000DD50098F5E727E044F8305F6773A5730F
:1027B000206940F02000206162B625731CE020688B
:1027C000016841F40071016020680069616A087065
:1027D000606A401C6062218D491E2185618D491E01
:1027E000618562B621680969017026E0324641467A
:1027F000204601F0E1FA18B1012007B0BDE8F08FE2
:1028000020680069616A0870606A401C6062208DFF
:10281000401E81B22185608D401E6085206842691E
:10282000D243520712D4032903D1016821F48061F5
:10283000016020680069616A0870606A401C60621B
:10284000208D401E2085608D401E6085208D0028D3
:102850007FF464AF84F83D7084F83E5084F83C50B7
:10286000CBE70220C9E70000020010000000FFFFD4
:1028700004000100300000202DE9FF4F83B09A468C
:10288000DDE9119793460446DDF84080FFF746FDE9
:10289000054694F83D0020287FD1192301224049A4
:1028A0002046009501F0E2F9002876D194F83C002A
:1028B000012872D0012084F83C0020680168C90713
:1028C00003D1016841F0010101602068016821F431
:1028D00000610160212084F83D00402084F83E0022
:1028E00000262664C4F82480A4F82A90608D2085F0
:1028F0002C48E062CDE9007553465A4620460499BB
:1029000001F034F970B930E02A463946204601F02A
:102910008BFA58B1206C042804D12068016841F476
:1029200000710160012007B0BDE8F08F606A216886
:1029300000780861606A401C6062218D491E89B27E
:102940002185628D521E628522685369DB435B07D5
:102950000BD469B100781061606A401C6062208D00
:10296000401E2085608D401E6085208D0028CBD1C3
:102970002A463946204601F04DF90028CAD154F8BC
:102980003D0B016841F400710160202004F81E092C
:10299000E67766770020C6E7FFE70220C3E700007E
:1029A000020010000000FFFF10B586B0002100916A
:1029B00001910291039100680F4988421AD10F4C8E
:1029C000A06940F00800A061A069694600F0080015
:1029D0000490C0200090122001900320039008482A
:1029E000FFF79EFBE06940F40010E061E06900F44D
:1029F0000010049006B010BD0054004000100240CA
:102A0000000C0140024881680278114481607047DF
:102A100024000020074810B5016841F01001016052
:102A2000032000F085F80F2000F006F800F024F8ED
:102A3000002010BD0020024070B50D4D04464FF43B
:102A40007A712878B1FBF0F00A490968B1FBF0F01F
:102A500000F0B4FB48B9102C07D200222146501ECA
:102A600000F046F800206C6070BD012070BD0000D1
:102A700024000020300000200C4808B5816941F096
:102A800001018161816901F001010091C16941F099
:102A90008051C161C06900F08050009004484168D5
:102AA00021F0E06141F00071416008BD001002407A
:102AB0000000014000280DDB00F01F0201219140C1
:102AC0004009800000F1E020C0F88011BFF34F8F73
:102AD000BFF36F8F7047002809DB00F01F02012150
:102AE00091404009800000F1E020C0F800117047DB
:102AF000F0B40E4B1B680C46C3F30223C3F1070569
:102B0000042D00D90425191D072901D2002300E056
:102B1000DB1E012606FA05F1491E214099409E4020
:102B2000761E16403143F0BC01F0D5BF0CED00E03D
:102B3000064900F0070208684FF6FF03184040EA14
:102B40000220034A10430860704700000CED00E0CB
:102B50000000FA0510B501460020234C012922D0BF
:102B6000022939D010291DD161682268D20119D5F6
:102B70001E48C1F38342C903805C0AD561681B4AC1
:102B8000C1F34041921E515C194AB2FBF1F1484336
:102B900001E0184948436168490203D44000032119
:102BA000B0FBF1F010BD226AC2F30121012903D16B
:102BB000920701D5C80310BD022905D1626A9207A8
:102BC00002D549F6404010BD0329FCD12168890394
:102BD000F9D54FF2244010BD00F02AF96168C1F325
:102BE0008131491C4900DBE700100240A859000868
:102BF00000127A0000093D002DE9F84305460078EF
:102C0000354CC00754D0E0690026C00008D4E06904
:102C100040F08050E061E069012600F080500090B3
:102C20002E480168C90512D40168804641F48071BC
:102C30000160FFF773FB074605E000BFFFF76EFB7F
:102C4000C01B642823D8D8F80000C005F6D5206A38
:102C500010F4407021D0A98801F4407181421CD049
:102C6000206A1F49012220F440700A6000220A6095
:102C70002062C00711D0FFF751FB074641F28838A8
:102C800008E000BFFFF74AFBC11B414502D9032002
:102C9000BDE8F883206A8007F4D5206A696820F4CB
:102CA0004070084320621EB1E06920F08050E0616E
:102CB0002878800705D56068A96820F4404008435B
:102CC00060602878C00605D56068E96820F4800057
:102CD000084360600020DBE7001002400070004005
:102CE000400442422DE9F0470F46050061D0434EB3
:102CF000306800F00700B84209D2306820F00700C1
:102D000038433060306800F00700B84251D128687D
:102D10003B4C810712D5400703D5606840F4E06062
:102D200060602878000703D5606840F460506060F8
:102D30006068A96820F0F000084360602878C00748
:102D400028D06868012810D02168022810D089078F
:102D500000292EDA616821F0030101436160FFF769
:102D6000DDFA804641F288390DE021688903EFE7FA
:102D70008901EDE7FFF7D2FAA0EB0801494502D936
:102D80000320BDE8F0876068696800F00C00B0EBD4
:102D9000810FEFD1306800F00700B8420BD93068DE
:102DA00020F0070038433060306800F00700B84278
:102DB00001D00120E5E72878400705D56068E9687B
:102DC00020F4E060084360602878000706D560685A
:102DD000296920F4605040EAC100606000F038F8D2
:102DE0006168084AC1F30311515CC8400649086094
:102DF00006480068FFF720FE0020C2E700200240DE
:102E000000100240B85900083000002028000020BF
:102E10000448054900684968044AC1F30221515C2D
:102E2000C84070473000002000100240C859000818
:102E30000448054900684968044AC1F3C221515C4D
:102E4000C84070473000002000100240C8590008F8
:102E50000E4A51680E4801F00C03042B11D0082BC8
:102E60000FD10C48C1F38343C903C05C0AD5516834
:102E7000084AC1F34041921E515C054A5043B0FBE1
:102E8000F1F07047044948437047000000100240C9
:102E900000127A009659000800093D002DE9F84F0C
:102EA000040070D02078C04DC00749D06868C0F3D6
:102EB0008100012807D06868C0F38100022809D189
:102EC0006868C00306D52868800339D56068002883
:102ED000E7D035E06068B0F5803F0BD010B1B0F5B9
:102EE000A02F11D0286820F480302860286820F4B2
:102EF000802002E0286840F480302860606890B14B
:102F0000FFF70CFA06460AE0286840F480202860A3
:102F1000F0E700BFFFF702FA801B642873D8286827
:102F20008003F7D50CE0FFF7F9F9064605E000BF8E
:102F3000FFF7F4F9801B6428F0D828688003F7D4E1
:102F400020789A4E80074FF001094FF0000839D5DC
:102F5000686810F00C0F07D06868C0F38100022881
:102F600009D16868C00306D42868800714D5206991
:102F7000012808D110E02069B0B1C6F80090FFF731
:102F8000CDF9074605E00AE1FFF7C8F9C01B0228A2
:102F9000C4D828688007F7D52868616920F0F80050
:102FA00040EAC10028600DE0C6F80080FFF7B6F9DE
:102FB000074604E0FFF7B2F9C01B022823D82868AF
:102FC0008007F7D4207800072CD57948A169D9B1BA
:102FD000C0F80090FFF7A2F9074604E0FFF79EF95A
:102FE000C01B02280FD8686A8007F7D571484FF4D4
:102FF000FA510068B0FBF1F0009000BF0098411E4C
:103000000091FAD20EE080E0C0F80080FFF786F968
:10301000074604E0FFF782F9C01B022875D8686AEA
:103020008007F7D42078400760D5E8690027C00002
:1030300008D4E86940F08050E861E869012700F0B1
:10304000805000905C480168C90513D4016883462C
:1030500041F480710160FFF761F9824606E000BF2C
:10306000FFF75CF9A0EB0A0064284ED8DBF80000FB
:10307000C005F5D5E06801280AD008B1052813D0AD
:10308000286A20F001002862286A20F0040002E08B
:10309000286A40F001002862E06841F2883B98B15C
:1030A000FFF73CF982460BE0286A40F004002862F2
:1030B000EEE700BFFFF732F9A0EB0A0159455AD8F5
:1030C000286A8007F6D50CE0FFF728F9824605E06C
:1030D000FFF724F9A0EB0A0159454CD8286A80076C
:1030E000F6D41FB1E86920F08050E861E06988B348
:1030F0006968C1F38101022944D00228C6F86080C2
:1031000004D0FFF70BF9044638E034E0FFF706F986
:10311000074604E0FFF702F9C01B02282BD82868F5
:103120008001F7D4206AB0F5803F05D16868A168B6
:1031300020F4003008436860D4E908010843696856
:1031400021F4741108436860C6F86090FFF7E6F850
:10315000044606E025E000BFFFF7E0F8001B022868
:1031600009D828688001F7D51BE000BFFFF7D6F823
:10317000001B022802D90320BDE8F88F28688001CF
:10318000F4D40EE00128F7D06868226A00F4803198
:10319000914204D1616A00F47010884201D001208C
:1031A000EAE70020E8E70000001002400000424289
:1031B00080044242300000200070004010B5401EE4
:1031C000B0F1807F01D3012010BD4FF0E024606199
:1031D0000F21601701F07FFC0020A0610720206113
:1031E000002010BD70B590F83C20012A26D00124A3
:1031F00080F83C40022280F83D2003685A689D68B0
:1032000022F070060A6832435A600D4B02689A42F7
:1032100008D0B2F1804F05D00A4B9A4202D00A4B37
:103220009A4204D1496825F080031943916080F8DF
:103230003D40002180F83C10084670BD022070BD62
:10324000002C0140000400400008004010B50400BC
:1032500003D094F83D0010B107E0012010BD00201C
:1032600084F83C00204600F01FF8022084F83D005E
:10327000211D206801F040F9012084F8460084F8FF
:103280003E0084F83F0084F8400084F8410084F850
:10329000420084F8430084F8440084F8450084F830
:1032A0003D00002010BD000008B50068B0F1804F5F
:1032B00008D10548C16941F00101C161C06900F050
:1032C0000100009008BD00000010024070B50446E7
:1032D00090F83C000025012817D0012684F83C60B6
:1032E000022084F83D002068826822F0770222F4F0
:1032F0007F4282600868502838D00DDC20284FD0EB
:1033000005DC90B3102811D14AE0022070BD3028AE
:1033100046D040280AD13BE060282FD070280DD03D
:10332000B0F5805F03D0B0F5005F12D0012584F8BE
:103330003D60002084F83C00284670BDCB68D1E990
:103340000121206801F021F92068816841F07701AE
:1033500009E0CB68D1E90121206801F016F9206865
:10336000816841F480418160E1E719E0CA684968F9
:10337000206801F0BFF95021206806E0CA6849685A
:10338000206801F0C8F96021206801F008F9CEE753
:10339000CA684968206801F0ADF940212068F4E767
:1033A000226801461046F0E710B586B00021009172
:1033B0000191029103910068B0F1804F2BD1174821
:1033C000816941F008018161816901F0080104917E
:1033D000816941F0040181618069022400F00400E8
:1033E000049040F60840CDE9000469460C48039477
:1033F000FEF796FEA003CDE9000469460948039450
:10340000FEF78EFE0848416821F4407141F0E0610A
:1034100041F44071416006B010BD00000010024050
:10342000000C0140000801400000014070B5044656
:1034300090F83C0000260D4601280FD0012084F8AA
:103440003C006AB1042A1DD0082A2FD00C2A3FD094
:103450000126002084F83C00304670BD022070BD7B
:10346000206801F0A5F82068816941F008018161B8
:103470002068816921F004018161206881692A69DD
:10348000114311E0206801F0BBF82068816941F424
:10349000006181612068816921F480618161206817
:1034A00081692A6941EA02218161D2E7206801F03D
:1034B000D3F82068C16941F00801C1612068C16981
:1034C00021F00401C1612068C1692A69114311E03A
:1034D000206801F0EDF82068C16941F40061C16124
:1034E0002068C16921F48061C1612068C1692A69CD
:1034F00041EA0221C161ACE710B5040003D094F8A1
:103500003D0010B107E0012010BD002084F83C0010
:10351000204600F01EF8022084F83D00211D20689E
:1035200000F0EAFF012084F8460084F83E0084F8A9
:103530003F0084F8400084F8410084F8420084F899
:10354000430084F8440084F8450084F83D000020DE
:1035500010BD704710B50446022249B104290ED0AF
:10356000082913D094F84100012816D0012010BD7D
:1035700094F83E000128F9D184F83E200FE094F839
:103580003F000128F2D184F83F2008E094F8400081
:103590000128EBD184F8402001E084F84120012289
:1035A000206800F0E5FF0F492068884203D1426C93
:1035B00042F4004242642068884208D0B0F1804F53
:1035C00005D00949884202D00849884204D181685F
:1035D00001F00701062903D0016841F001010160F3
:1035E000002010BD002C01400004004000080040F5
:1035F00070477047F8B5016804460868CA684B69A7
:1036000010F00F0F4FF0000559D003F0010602F43F
:103610009077374365D0C10705D0D10503D5616CDC
:1036200041F001016164410705D5D90703D0616C00
:1036300041F002016164810705D5D90703D0616CAF
:1036400041F004016164010707D502F02001314314
:1036500003D0616C41F008016164616C00293AD0CB
:10366000800604D5900602D5204601F0F1F82068C6
:103670004069616CC0F38010090700D460B3204634
:1036800001F063F820684069400621D520681430B5
:1036900050E8001F21F0400140E80012002AF5D157
:1036A000E06BA8B16D494163E06BFEF7DBFC0028DD
:1036B00011D0E06B416B01B0BDE8F04008478306D4
:1036C0000FD593060DD52046BDE8F84001F0C0B8EF
:1036D0002046FFF78EFFF8BD2046FFF78AFF65649E
:1036E000F8BD266B2023012E7CD1C6067AD5D606DE
:1036F00078D508684868009048694FF0020640068F
:1037000040D5E16B086840680004000CE8D0A28D49
:103710008242E5D9E085886920282DD020680C30C8
:1037200050E8001F21F4807140E80012002AF5D112
:103730002068143050E8001F21F0010140E8001219
:10374000002AF5D12068143050E8001F21F0400114
:1037500040E80012002AF5D184F842302563206841
:103760000C3050E8001F21F0100140E80012002A40
:10377000F5D1E06BFEF752FC6663A08DE18D401A37
:1037800081B22AE0A08DE18D401A81B2E08D00283F
:10379000A6D00029A4D022680C3252E8000F20F4F1
:1037A000907042E80007002FF5D12068143050E8EF
:1037B000002F22F0010240E80027002FF5D184F805
:1037C0004230256320680C3050E8002F22F01002B0
:1037D00040E80023002BF5D166632046FFF708FF81
:1037E000F8BDFFE705062BD5150629D594F841004D
:1037F0002128F5D1A068B0F5805F01D12069B0B172
:10380000206A411C2162216800784860E08C401EDB
:103810000004000CE084E3D12068C16821F080013D
:10382000C1602068C16841F04001C160D8E7206AEA
:103830000088C0F308004860206A801C2062E5E729
:103840004006CDD55006CBD5CA68204622F04002AE
:10385000CA6084F8413000F0F1F8C1E73B47000846
:1038600070B5040004D094F84100002510B106E0C2
:10387000012070BD84F84050204600F023F8242039
:1038800084F841002068C16821F40051C1602046DD
:1038900001F040F82068016921F49041016120683D
:1038A000416921F02A0141612068C16841F4005159
:1038B000C1606564202084F8410084F8420065639B
:1038C000002070BD30B585B00024009401940294AE
:1038D00003940068184988422CD11848816941F442
:1038E00080418161816901F480410491816941F0E5
:1038F000040181618069124D00F0040004904FF4CE
:103900000070009002200190032003906946284631
:10391000FEF706FC2815CDE9000469462846029406
:10392000FEF7FEFB002201212520FFF7E1F825200C
:10393000FFF7D1F805B030BD00380140001002405B
:103940000008014090F84230202B01D0022070473F
:1039500021B11AB10023036301F038B80120704788
:1039600010B50B4C00686168096888420FD14FF4AC
:1039700000510848FEF7C4FC2178074800F008FD14
:1039800021466068BDE810400122FFF7DBBF10BD93
:103990000400002000100140780100202DE9F843C8
:1039A000044690F84100984616460D46202802D05D
:1039B0000220BDE8F88385B17EB10020606421203B
:1039C00084F84100FEF7AAFCA6848146E684A0683C
:1039D0002027B0F5805F02D003E00120E9E72069ED
:1039E00010B12E4600250EE000260CE08021204676
:1039F00001F007F8A8B9C6B116F8010B21684860B4
:103A0000E08C401EE084E08C4B464FF00002CDF885
:103A100000800028EAD14FF04001204600F0F1FF7D
:103A200040B184F841700320C3E735F8020BC0F3BE
:103A30000800E3E784F841700020BAE77047FEE72A
:103A400001684A69D24352050FD46FF480624A611B
:103A5000002140F8301F202242738173026942F036
:103A600004020261017301207047002070470000CA
:103A70002DE9F84F0446006889460B9D0168984679
:103A8000174641F4806101602068016841F480714B
:103A9000016000954FF0011B0022594620460A9B09
:103AA00000F0E4F84FF4007A40B120680068C005E7
:103AB00001D5C4F840A00320BDE8F88F216809F0C3
:103AC000FE0008612B46284920460A9A00F016F9A4
:103AD000F0BB20684169806900902A4620460A9917
:103AE00000F0A2F940B1206C04283AD120680168A6
:103AF00041F40071016034E0FEB2B8F1010F09D069
:103B00002168380A08612A4620460A9900F08CF993
:103B10000028E8D1206806612A4620460A9900F06C
:103B200083F90028DFD12068016841F480710160C9
:103B300000950022594620460A9B00F097F800287D
:103B4000B3D1216809F0FF0040F00100086100E0F6
:103B500007E02B46044920460A9A00F0CFF80028D7
:103B6000AAD00120A8E70000020001002DE9F843D7
:103B7000044600680D46DDE9089701689846164638
:103B800041F4807101604B4600224FF00111204644
:103B9000009700F06BF848B120680068C00502D5B6
:103BA0004FF4007020640320BDE8F883216805F01D
:103BB000FE0008613B464A461549204600F09EF843
:103BC00088B920684169806900903A464946204694
:103BD00000F02AF948B1206C042804D1206801685B
:103BE00041F4007101600120DEE7F5B2B8F1010F88
:103BF00009D02168300A08613A464946204600F05B
:103C000013F90028E7D1206805610020CCE7000007
:103C10000200010070B516460D4604461EE020461F
:103C2000FFF70EFF08B1012070BD681C16D0FEF72B
:103C300075FB801BA84200D885B920684069C04345
:103C400040070BD5002044F8300F20216173A0738A
:103C5000216941F0200121612073E4E72068406977
:103C6000C0434007DBD4002070BD00002DE9F047C1
:103C7000984617460D460446C1F30746DDF82090E6
:103C80002AE000BFB8F1FF3F26D0FEF747FBA0EBCC
:103C90000901414502D8B8F1000F1DD12068012E5D
:103CA00016D0806925EA00000004000C12D0002024
:103CB000B84211D1002044F8300F20216173A07365
:103CC000216941F02001216120730120BDE8F087C6
:103CD0004069E7E70120EBE72068012E0AD0806900
:103CE00025EA00000004000C06D00020B842C9D02C
:103CF0000020EBE74069F3E70120F7E72DE9F04703
:103D0000984616460D4604464FF000094FF0200A2B
:103D1000C1F3074723E020684069C043400515D43C
:103D20002068016841F40071016021686FF48060CF
:103D30004861C4F8309084F83DA084F83E90216C2E
:103D400041F00401216484F83C9021E0701C06D00D
:103D5000FEF7E4FAA0EB0800B04203D816B1012F39
:103D60001FD021E02068012F15D0806925EA0000CE
:103D70000004000C18D000BF44F8309F84F80DA058
:103D800084F80E90216941F02001216184F80C90A3
:103D90000120BDE8F087406925EA00000004000C1E
:103DA000EAD12068406901E02068806925EA0000C6
:103DB0000004000CAFD1ECE72DE9F041002590465E
:103DC0000E460446202728E04069C043C0060CD4B4
:103DD00054F8301B6FF01000486144F810596777B1
:103DE000A577206A2062257714E0FEF797FAA0EB0A
:103DF0000800B04200D886B920684069C043400638
:103E00000BD544F8305F6773A573206940F020003C
:103E1000206125730120BDE8F08120684169C94314
:103E20004906D1D40020F6E770B516460D46044683
:103E30001EE02046FFF704FE08B1012070BD681C9B
:103E400016D0FEF76BFA801BA84200D885B920680F
:103E50004069C04300060BD5002044F8300F2021F4
:103E60006173A073216941F0200121612073E4E7AF
:103E700020684069C0430006DBD4002070BD00000C
:103E800070B516460C4600F0C9F805463146204686
:103E900001F086FC0446284601F03CFB314601F067
:103EA0007FFC214601F03CFA10F1FF4F04D2BDE83F
:103EB0007040024901F076BB002070BD0000C8428E
:103EC00070B504468079012560B10226012805D02D
:103ED000022803D00020A071A07970BD104601F027
:103EE0002DFC01D2A571F7E7A671F5E770B50025A5
:103EF000C5644571016002710E46C56004465100FB
:103F00000561022303223046FEF7D2FA08B10020F1
:103F100070BDA5714FF07E5200212046FFF7D0FF03
:103F2000204600F094F8204600F0A0F8012070BD73
:103F30002DE9F041094D0A4E0746002404EB8400A8
:103F40002A5D06EB00103946FFF7D0FF002803D0AA
:103F5000641C042CF2DB0120BDE8F08180590008CC
:103F6000380000202DE9F04186B00C46804614212F
:103F70006846FCF715FB601E042807D31422694627
:103F80004046FCF7DBFA06B0BDE8F08104EB8400A4
:103F90001D49002601EB001735463446503F384690
:103FA00000F03CF801F0B6FA314601F045F906465A
:103FB000384600F03AF8294601F03EF9054605205A
:103FC000FEF79CF8641C052CE9DB104C30462146BA
:103FD00001F0A6F900902146284601F0A1F901461A
:103FE0000190009801F0DEFA0290094A094938462A
:103FF000FFF746FF0246039007493846FFF760FF88
:104000008DF81000BAE70000380000200000A04042
:1040100000403545004083450000704110B5022145
:1040200000F0C9F9C008800010BD10B5044600F0CA
:1040300005F8E168BDE8104001F072B910B504213F
:1040400000F0B9F9BDE8104000B201F04BBA10B56C
:104050004FF40042002100F014FDBDE810400120A3
:10406000FEF74CB80A46052100F00BBD70B54FF4C1
:104070008051044601810748E0604002206143F618
:104080009F152046FFF7EEFF29462046BDE8704009
:1040900000F002B8000020410A46002100F0F1BC07
:1040A0003EB5002411480094019402940E498460A6
:1040B000016004730475012505614FF460214460BB
:1040C000C161FDF7D9FD08B172B6FEE70720009483
:1040D000CDE9015069460548FDF74CFD002801D0A7
:1040E00072B6FEE73EBD000000240140A802002099
:1040F0002DE9F04786B000242D48009401940294E5
:104100000394816941F010018161816901F010011E
:104110000491816941F020018161816901F02001F0
:104120000491816941F004018161816901F0040118
:104130000491816941F0080181618069DFF8748030
:1041400000F008004FF40055049000222946404634
:10415000FEF7DEF8DFF860900022E0214846FEF727
:10416000D7F8DFF858A04FF2010700223946504631
:10417000FEF7CEF80095022601250396CDE90154FD
:1041800069464046FDF7CCFFE020CDE90005CDE9CA
:10419000024669464846FDF7C3FF00970396CDE9FE
:1041A000015469465046FDF7BBFF06B0BDE8F087F5
:1041B000001002400010014000080140000C0140C6
:1041C00010B58EB000240794089409940A940B94B7
:1041D0001C2168460C94FCF7E3F92A484FF0804113
:1041E00001604721C0E9011444F61F61C0E90314CE
:1041F0008461FFF72BF808B172B6FEE74FF48050E8
:10420000079007A91F48FFF761F808B172B6FEE7EB
:104210001C48FFF771F908B172B6FEE70B940BA9C1
:1042200018480C94FEF7DEFF08B172B6FEE7602076
:10423000CDE9000402940022694612480494FFF775
:10424000F5F808B172B6FEE7042269460D48FFF79B
:10425000EDF808B172B6FEE7082269460948FFF793
:10426000E5F808B172B6FEE70C2269460548FFF78B
:10427000DDF808B172B6FEE70248FFF795F80EB018
:1042800010BD00002C030020FEE7FEE7FEB505464A
:104290000120CDE900100720029069462846FDF76D
:1042A00069FC08B1FDF7F8FB2846FDF73DFE4FF429
:1042B0007A712846FDF79AFD2846FDF7D9FC84B2AD
:1042C0002846FDF791FE204601F024F9194901F036
:1042D00027F8194D294601F065F9184E0446A84201
:1042E00010DA14F0FF4F0DD02146284601F058FA9D
:1042F000134D294601F056F9214601F011F8B0F5A9
:10430000000F01DA3046FEBD294601F009F800F041
:1043100025FC0C4901F046F90B4900F08DFF0146E0
:104320004FF07E5000F0FCFF03B00849BDE8F040BC
:1043300001F036BA00F07F4533335340339388C3DE
:1043400000401C4693A198390FCF5B3B33938843C1
:104350007047D0E90032934202D14FF0FF307047EE
:10436000C3689A5C0A704168491C41608268914246
:1043700001D3002141600020704731B12AB10023F0
:1043800003604360C0E9022170474FF0FF3070477F
:1043900010B5036884685A1C92B2944200D8002277
:1043A0004468944202D14FF0FF3010BDC468E1541C
:1043B0000260002010BD1FB50A464FF47A74022334
:1043C00003A98DE81A000179006849000123FEF76E
:1043D00025F9BDF80C0004B040BA10BD70470000CC
:1043E00070B5054616480468002C20D0002D1ED05C
:1043F000042D1CD8B42900D9B421084601F08AF84C
:10440000104900F08DFF104901F0CCF801F04AF896
:104410000E4900F5FA7001EB850180B251F8041CD9
:1044200031B1042907D00829216807D0086470BD7C
:104430002168486370BD2168886370BDC86370BD22
:1044400000000020000034430000FA4470590008C6
:1044500070B505460648074E0024056056F824103E
:104460002846FFF777F8641C042CF7DB70BD0000CA
:104470000000002070590008FEF7C4BA30B593B0B0
:1044800028216846FCF78CF814210AA8FCF788F864
:10449000002501200F9510951195010412958DE8C6
:1044A000230004904FF4E010CDE908100224079493
:1044B0006846FEF7F3FC08B172B6FEE70AA90F20C2
:1044C00081E831004FF48060CDE90D0502210AA892
:1044D000FEF708FC08B172B6FEE74FF400401190F9
:1044E0000F940FA8FEF788FB002801D072B6FEE7F4
:1044F00013B030BD70470000F0B50268194B1A4C7C
:104500001A4D4FF08047984205D0B84203D0A042E0
:1045100001D0A84203D122F070064A683243984283
:1045200005D0B84203D0A04201D0A84203D122F462
:104530004074CA6822434C6922F080022243026020
:104540008A68C2620A688262984201D1096901637D
:10455000012141610169C90703D0016921F001010D
:104560000161F0BD002C0140000400400008004043
:1045700010B501F01F030121046A99408C430462C5
:10458000016A9A401143016210BD10B5846842EA85
:10459000032224F47F440A432243826010BD8268D0
:1045A00022F070020A4342F0070181607047000068
:1045B00030B5036A026A22F001020262426884692D
:1045C00024F073050C682C4323F002058B682B4301
:1045D0000A4DA8420BD123F00805CB6822F44072A3
:1045E0002B434D6923F0040315438A692A43426033
:1045F000846149684163036230BD0000002C0140C2
:1046000030B5026A036A23F01003036243688469C9
:104610000D6824F4E64444EA05248D6822F0200263
:1046200042EA05120B4DA8420ED1CD6822F080025D
:1046300042EA05124D6923F4406343EA85038D691C
:1046400022F0400243EA8503436084614968816344
:10465000026230BD002C014030B5036A026A22F4C8
:10466000807202624268C46923F4007324F0730507
:104670000C682C438D6843EA05230C4DA8420ED1EB
:10468000CD6823F4006343EA05234D6922F44052C8
:1046900042EA05128D6923F4806342EA0512426002
:1046A000C4614968C163036230BD0000002C014051
:1046B00030B5046A026A22F4805202624268C36919
:1046C0000D6823F4E64343EA05238D6824F400547F
:1046D00044EA0534064DA84204D14D6922F48042D3
:1046E00042EA85124260C36149680164046230BDD8
:1046F000002C014010B5036A046A24F0010404622E
:10470000846924F0F00444EA021423F00A020A4304
:104710008461026210BD10B5036A046A24F01004BB
:104720000462846923F0A00324F4704444EA023252
:1047300043EA01118261016210BD10B5406A002197
:10474000C185C184FEF755FF10BD01680C3151E8E9
:10475000002F22F4907241E80023002BF5D101686C
:10476000143151E8002F22F0010241E80023002B10
:10477000F5D1016B012909D101680C3151E8002FF5
:1047800022F0100241E80023002BF5D1202180F80F
:1047900042100021016370472DE9F04106460D46A5
:1047A0002520FEF787F9164900273C46D1E9023259
:1047B000486809680AE000BF12F800C0BCF10A0F9F
:1047C00007D0401CB0FBF3FC03FB1C008142F3D17B
:1047D00010E001276D1E05E0305D0A2808D0AC42CC
:1047E00006D2641C31190648FFF7B3FD0028F3D048
:1047F000002030552520FEF76EF93846BDE8F081DF
:104800007801002010B5084C08494FF480726060B0
:10481000A1F11000FFF7B1FD21466068BDE810402E
:104820000122FFF78FB8000004000020880100205B
:1048300010B50446FBF718FE82B2044821464FF03B
:10484000FF334068BDE81040FFF7A8B8040000201F
:1048500008B590F84210222901D0022008BD8268D4
:104860004FF480539A4201D1016921B1816A9A4281
:104870001BD04AB10AE00268816A5268C2F308029A
:104880000A80816A891C08E0026972B10268526874
:1048900002F07F020A70816A491C8162C18D491E43
:1048A0000904090CC18503D01BE002685268F1E7D6
:1048B0000168CA6822F02002CA600168CA6822F44E
:1048C0008072CA6001684A6922F001024A612021AF
:1048D00080F8421000214163026B012A03D0FFF7E8
:1048E0003FF8002008BD016301680C3151E8002F3A
:1048F00022F0100241E80023002BF5D101680A687C
:10490000D20602D50A6849680091818DFEF770FED3
:10491000E7E7000070B5044600680169E26821F429
:104920004051114301612169A0680843616908434E
:104930002168CA6841F20C639A430243CA60206846
:104940004169A26921F44071114341611E49206807
:10495000884202D1FEF76CFA01E0FEF759FA00EB4B
:10496000C00101EB0012606864218000B2FBF0F32B
:10497000B3FBF1F36FF018067343B2FBF0F5B2FB33
:10498000F0F605EB8305322303EB0515B5FBF1F5D6
:10499000B6FBF1F605F0F00505EB0615B2FBF0F6F7
:1049A000B2FBF0F0B0FBF1F06FF01802504306EBF1
:1049B000800003EB0010B0FBF1F0216800F00F0065
:1049C0002844886070BD0000003801408162828503
:1049D000C28500214164222180F84210016921B181
:1049E0000168CA6842F48072CA6001684A6942F08C
:1049F00001024A610068C16841F02001C1600020E5
:104A000070472DE9F843984617460D460446089E20
:104A100024E0701C22D0FDF781FCA0EB0800B0421E
:104A20001AD8CEB12068C168490717D5802D15D096
:104A3000402D13D00168C94309070FD40168002530
:104A4000406800902046FFF780FE0820606484F8EC
:104A500040500120BDE8F8830320FBE72068006890
:104A600035EA000004D00020B842D2D00020F1E79F
:104A70000120F9E70148FEF7BDBD000074030020E6
:104A8000FEE71FB5130A8DF80C308DF80D204FF49A
:104A90007A74022303AA8DE81C000279006854008E
:104AA0000A4601232146FDF7E7FE04B010BD490088
:104AB00050EAC12018BF04204A0D18BF40F0010081
:104AC00040F2FF72B2EB515F08BF40F002000128D4
:104AD00008BF052070470907090E002804DB00F114
:104AE000E02080F80014704700F00F0000F1E02093
:104AF00080F8141D704700214FF07E5000F010BC6C
:104B0000012100F0F6BE0021084600F009BC303853
:104B10000A2801D2012070470020704705280ED2D4
:104B2000DFE800F0030507090B0006A0704706A0A8
:104B3000704706A0704706A0704706A0704706A001
:104B400070470000540000005300000044000000C3
:104B50004E0000004C000000520000002DE9F04122
:104B60000026A0F50001B1F1FE4F7DD200F5002234
:104B70006FF07E0101EBE251C2F3025477184FF05F
:104B80007E52A0EBC15602EB045557EA040047D011
:104B90002946304600F050FB80462946304600F05A
:104BA000FFFD414600F0BCFB0546014600F0FAFC63
:104BB0008046454900F0F6FC444900F03DFB0646BE
:104BC0004146284600F0EEFC314600F0EBFC06467C
:104BD000384600F087FC07463D4900F0E3FC3D49BC
:104BE000794451F8241000F027FB314600F024FBF3
:104BF00006460121284600F07CFE314600F01CFBF1
:104C000005463846344900F0CDFC3449794451F822
:104C1000241000F011FB2946BDE8F04100F00CBB68
:104C20004FF07E51304600F0BBFD05462C4900F0A8
:104C3000B9FC2C4900F000FB294600F0B3FC2A49DE
:104C400000F0FAFA294600F0ADFC6FF0824100F066
:104C5000F3FA04462946084600F0A4FC214600F079
:104C6000A1FC0146284600E003E0BDE8F04100F069
:104C7000E3BA4FF07F42B2EB400F03D2BDE8F04100
:104C8000FFF73EBFB0F1FF4F08BFBDE8F081B0F1C4
:104C9000004F06D90120FBF7B6FCBDE8F041FFF755
:104CA00032BF30F0004105D06FF01606172100F03A
:104CB00020FE5BE70220FBF7A6FCFFF71CFF80F05D
:104CC0000040BDE8F081000066F1CC3EAAAA2A3F70
:104CD000F4FD05380C0E00000070313FC00D0000DF
:104CE00021ED423E0A1180BEC1ABAA3EB8B0FDF72D
:104CF00091FEFFF7C3FBFFF7FBF9CE48CC49002438
:104D00000160CD49C0E901144FF48041C0E903417D
:104D100044618461C4610462FDF706FB08B172B6A8
:104D2000FEE7FFF7BDF9FFF74BFAC248C3499C30D5
:104D300001604FF4E131C0E901140C21C460C0E905
:104D400004418461C461FEF78BFD08B172B6FEE7D1
:104D5000B8483038FCF7A2FEB6489C30FFF752FD49
:104D6000FCF73CFEB3485430FFF772FBB148FFF745
:104D7000DFF8B34E0025371D74557C556D1CA146D8
:104D8000B046BA46E8B2B421FFF72AFBEDB2042DD3
:104D9000F2D3FDF7C3FAAA4C103C2060A9A0FFF79C
:104DA00047FD64216846FFF7F7FC48B1694619A83A
:104DB000FBF736FB19A8FCF791FDA7A0FFF738FD1C
:104DC000FDF7ACFA9E4C103C2168401AB0F5FA6F22
:104DD0007ED3FDF7A3FAA34E2060DFF884B200244F
:104DE000A6F1500593485BF824103038FFF74EFACF
:104DF00046F82400671CF9B232A8FFF7B3F804EBB9
:104E0000840005EB8000142232A9FBF797FBFCB26B
:104E1000042CE7D300244746385D052825D2DFE877
:104E200000F00331968F960004EB840B8E4855F802
:104E30002B10814219DD56F82410601C3290C0B24C
:104E4000FCF7D8FD032806D0022804D03298C0B25F
:104E5000FCF7E8FD08B1042006E005EB8B00834970
:104E6000C068884202DB0220385579E0744901208D
:104E7000083938550855FDF751FA6E49403941F85F
:104E800024006DE056F824007949884201DD0320B2
:104E9000385504EB840005EB800032904068DFF861
:104EA000D4B1584502DA7449884205D3734988421F
:104EB00043DA10F1814F40D261480C38005D28B9C7
:104EC000FDF72CFA5B49503941F824005C4900E0B9
:104ED0004DE00C39085D401CC0B20855032815D3BD
:104EE0003298664A4068904207DA10F1814F04D246
:104EF00007F8049001F8049008E0584506DA5E4A85
:104F0000904203D20220385501F80490DFF830B106
:104F1000ABF10C0B1BF80400401E022820D2FDF759
:104F2000FDF94449503951F82410401A41F270718A
:104F3000884215D90BF8049012E041490C39E3E797
:104F400056F824004E4988420ADA01208CE704EB27
:104F5000840055F820104448814201DA07F8049093
:104F6000641CE4B2042CFFF457AF00F08DF8002469
:104F70004546285D01282BD1FDF7D0F92D4F403F44
:104F800057F82410401A3F49884221D3661CF0B2DA
:104F90000021FCF7DFFC6420FDF7B0F8F1B232A885
:104FA000FEF7E0FF04EB840107F5927000EB81004F
:104FB000142232A9FBF7C2FAFDF7B0F9204947F8ED
:104FC0002400083901200855F0B20121FCF7C2FC89
:104FD000641CE4B2042CCCD300245646285D315D19
:104FE00088421FD005281BD2DFE800F00D030D1505
:104FF0000D00671CF8B20121FCF7ACFCF8B20A21E5
:10500000FFF7EEF90CE0671CF8B20021FCF7A2FCF8
:10501000F8B2B421F4E7601CC0B20021FCF79AFC9E
:10502000285D3055641CE4B2042CD7D3B9E60000E7
:1050300000540040D8020020A08601000038014042
:105040001C00002048652074686F6E67206B686FD5
:105050006920646F6E6700006F6B0D0A000000002E
:10506000845900080C0400200000FA430000C442E8
:1050700000005C42CDCCCC3F333313C0CDCCCC3D13
:1050800000004842E09304002DE9F04FDFF8BCA097
:10509000A9B000242E48005D5FEA000B08D0BBF1E8
:1050A000020F0AD02A4D083D285D01280ED019E0D4
:1050B00027490020091F085504E025486421001FE6
:1050C000015500202249083908550BE004EB840102
:1050D0000AEB8100C06800F0E5F91D49091F085579
:1050E000002028551948503050F8240000F078F876
:1050F000074604EB84090AEB89008846406800F003
:105100006FF805460E465AF8290000F069F8034684
:105110000A465846FFF702FD0090CDE9023204A985
:105120000B4881E8E001001F621C035D09A108A88B
:10513000FBF762F808A8FFF77BFB641C042CA9DBD3
:105140000DA0FFF775FB29B0BDE8F08FBC03002070
:105150001C000020503A25642C25253A25642C4358
:105160003A25732C563A252E32662C493A252E3292
:10517000662C543A252E31660A00000010B500292D
:105180000AD00878002807D005487844FBF7EAFEE3
:10519000002801D0002010BD0248784410BD000056
:1051A0003A0900003209000010B500290AD0087839
:1051B000002807D005487844FBF7D4FE002801D02A
:1051C000002010BD0248784410BD00002A090000EC
:1051D000220900000808A0F500114FEA31017047CC
:1051E00043004FEAD30C4FEA3C0C43401FBF40073B
:1051F0000CF1605113F0FE4F70471CF0006F03D1AB
:1052000000200CF0004170470CF0004343EA50705E
:1052100010B540EACC0000F046FA00BF0000009252
:105220004FEA0001FFF7D6BF4FF000414FF00000FA
:10523000A1F500217047000090EA010F48BF81F0FE
:10524000004100F1B482421A3CBF801A89184FEA2B
:10525000D0524FF07F4C1CEA410FA2EBD15318BF44
:105260009CEA026F00F03B804FF0004C4CEA0020BB
:105270004CEA012121FA03FC10EB0C0C1ED202F1C6
:10528000FF325FEA1C2040EBC25038BF70471CF071
:105290007F0F4FEA400C18BFBCF17F4F38BF7047FB
:1052A000C3F12003994008BF20F00100BCF17F4FFB
:1052B00038BF7047A0F1C04000F03BBA4FEA3C0055
:1052C000000A40EBC25028BF1CF0FF0F4FEA400C11
:1052D000E6D018BFBCF17F4F38BF7047EAE79CEAC1
:1052E000026F05D010EA5C0F08BF00F00040704765
:1052F00010B500F0D8F900BF64FBBE3E014800F0D5
:10530000C6BA00BF0000C07F401058BFC0F1404087
:10531000491058BFC1F140418142EFF3008070470E
:105320004FF47F0C1CEAD0121EBF1CEAD11392EA84
:105330000C0F93EA0C0F00F0858090EA010F48BF34
:1053400042F4807240F4000C41F400002CF07F41E4
:1053500020F07F4000B58142A2EB03020FF2081C4F
:10536000ACEB504EC0F100009EF800E04FEA4E0E4C
:1053700000FB0EFC38BF49004FEA2C1C02F5FA0274
:105380000CFB0EF34FEACE1E4FEA112C4FEAC1215F
:105390000EEB635E42EB22420EFB0CFC4FEA1C5309
:1053A00000FB03114FEA112C4FEA01310EFB0CFCFC
:1053B0004FEADC4C00FB0C11C14228BF09184CEB32
:1053C00003335DF804EB10EB410143EBC250B2F53F
:1053D0007C0F38BF704729D512F0F00F1CBF00F1C9
:1053E000C04000F00040704700818283848586873A
:1053F00088898B8C8D8E8F919293959697999A9C94
:105400009D9FA0A2A3A5A7A8AAACAEB0B2B3B5B702
:10541000B9BCBEC0C2C5C7C9CCCED1D4D7D9DCDFD8
:10542000E2E6E9ECF0F3F7FAFE0000004FEA400C88
:105430000CF1807CBCF17E4F28BF7047B0F1C040BA
:1054400000F077B990EA010F0CEAD11348BF42F49B
:105450008072624538BF634507D213F47F0F16D0C0
:1054600080EA010000F00040704710B500F01BF921
:10547000097EFC3E00F005B880EA010000F0004023
:10548000704780EA010000F0004000F052B912F4C9
:105490007F0F04BF0248704780EA010000F049B95D
:1054A0000000C07FC10DD1F19E0206DB4FEA002350
:1054B00043F0004323FA02F07047004207D54FEA59
:1054C0004001B1F1FE4F02D24FF00000704710B51D
:1054D00000F0E9F849922480002070476FEA20002C
:1054E0007047000010F0004148BF4042B0FA80F31E
:1054F00010FA03F2C3F19D030BD051EAC35101EB43
:105500001220530638BF704700F1010008BF20F099
:1055100001007047B0FA80F310FA03F2C3F19D0363
:105520000AD0D90501EB1220530638BF704700F1AD
:10553000010008BF20F001007047000050EA010C94
:1055400000F113801CF5000F58BFBCF5000F01D40B
:105550008842704707D710F5000F58BF11F5000FAC
:1055600015D488427047894270471CF5000F04D556
:10557000BCF5000FF7D5814270474FF0807C1CEBE3
:10558000400F38BF1CEB410F01D28142704710B56C
:1055900000F089F8922449004FF000504FF08051FC
:1055A000FFF7B2BE4FF47F0C1CEAD0121EBF1CEAFC
:1055B000D11392EA0C0F93EA0C0F00F0478090EAA7
:1055C000010F48BF42F480724FF0004C4CEA0020BB
:1055D0004CEA012102EB0302A0FB0113A2F5000239
:1055E000002918BF43F001035B0028BF4FEA3303D3
:1055F00042EB22425FEA132C4CEBC2502EBFBCEBB5
:10560000436FB2F57C0F70474FEA036CBCF1004F5B
:1056100008BF20F00100B2F57C0F38BF70470BD5F2
:1056200082F0FF0212F5803FC8BF704700F1C04012
:10563000D8BF00F00040704700F5000C5FEA4C0C4A
:1056400048BF7047B0F1C04000F073B890EA010F56
:105650000CEAD11348BF42F48072624538BF6345FB
:1056600004D280EA010000F00040704710B500F05D
:105670001AF800BF8900013E00F007B800F009B831
:105680005FEA410C5FEA1C6C08D080EA010000F080
:1056900050B85FEA400C5FEA1C6CF6D14FF0004056
:1056A000A0F5800070470EF1020E2EF0030E5EF89A
:1056B000044B244204D44FEA4102B2F17F4F11D887
:1056C0004FEA4003B3F17F4F0CD80ED14FEAD07CA4
:1056D000B2F17F4F0CEB4C0C0CF1020C08BF4CEB01
:1056E000D17C04E04FF0080C01E04FEAD17C0CEBD8
:1056F0004C0324FA03F404F00704B4F1040C06D2BA
:105700000EEB840CBDE810404CF0010C6047DFE864
:105710000CF0070802024FF00040A0F5800010BD19
:105720000846420018BFD2F1807288BF00F00040E6
:1057300010BDFF2141EAD050C005704751EA000C6E
:1057400000F113801CF5000F58BFBCF5000F01D409
:105750008142704707D711F5000F58BF10F5000FB1
:1057600015D481427047894270471CF5000F04D55B
:10577000BCF5000FF7D5884270474FF0807C1CEBDA
:10578000410F38BF1CEB400F01D28842704780EABE
:10579000010081EA000180EA0100FFF7F8BE000085
:1057A00090EA010F48BF81F000413FF54CAD421A2D
:1057B00004D882F00042A0EB020011444FEAD0521C
:1057C0004FF07F4C1CEA410FA2EBD15318BF9CEA6B
:1057D000026F4AD04FF0004C4CEA00204CEA012105
:1057E00021FA03FCB0EB0C0C0FD412F0FE0F36D0F4
:1057F0005FEA4C001DD5001240EBC25038BF704725
:105800001CF03F0F18BF70470BE0A2F101025FEAE6
:105810001C2040EBC25038BF70471CF07F0F18BFF0
:105820007047C3F12003994014BF401E20F00100CF
:10583000704780084FEA122308BF7047B0FA80FC17
:10584000A2EB0C02CCF1280C60FA0CF093EA122FB8
:1058500004BF00EBC25070474FEAC3707047130A91
:105860005FEADC1008BF7047F6E79CEA026F04D0DD
:1058700010EA5C0F08BF0020704710B5FFF713FF58
:1058800040DFF63E81F000407047FAF7F4BF0CF0BD
:105890000F03092B08BF082000F051800A2B0BD002
:1058A000082B18BF704708BF1CF0400F0AD04FF0FC
:1058B00000004FF0000170471CF0400F18BF4FF080
:1058C000004070471CF0100F08D020F0704300F02B
:1058D0007F4242EAD3014FEA4370704700F06040D4
:1058E00021F07F4242EA000201F07F4040EA7270FC
:1058F00070474FF0FF0212EAD0521CBF92F0FF0334
:105900008B42C2BFD14200EBC1507047002A0AD07F
:10591000002B0BD0002900F00040A4BF40F0FE4057
:1059200040F40000704700F00040704743024FF021
:105930000B0C18BF4CF0806C7FF4E0AC70471CF48B
:10594000801F11D01CF4E02F03D06FEACC31490046
:1059500070474FF04050EFF3008222F0704242EA6D
:10596000000282F3008870474FF00000704700008B
:105970000000000004000000080000000C0000000F
:10598000404144450000000001000000020000000A
:1059900003000000010202030405060708090A0BC0
:1059A0000C0D0E0F10100102020304050607080972
:1059B0000A0B0C0D0E0F101000000000000000007C
:1059C00001020304060708090000000001020304A5
:1059D000000000000030F13D0070643E0000A33E76
:1059E0000090CF3E0090F83E00400F3F00E0203F87
:1059F0000000000015B78337CDE37B380EE1C538D2
:105A000060F69138AF5F0F38E1BC3E3823F4473978
:105A100002400000000000A000000000054000005F
:105A2000000000C8000000000C4000000000409C86
:105A300000000000194000000020BCBE0000000073
:105A400034400000BFC91B8E00000004B5400000B8
:105A5000504BCFD06607E2CF010000006C41000040
:105A60003E8251AADFEEA73401000000D9420000B7
:105A7000DCB5A0E23A301F97FFFFFFFFB4450000FE
:105A8000FD25A0C8E9A3C14FFFFFFFFFFF3F0000B6
:105A90000000008000000000FF3F000000000080C8
:105AA00000000000F05B000800000020380000004B
:105AB00028010008285C000838000020480A00007F
:105AC000440100081C00000043000000F8FFFFFF35
:105AD0000C0000000E0000000F0000002E0000006F
