:020000040800F2
:10000000B8090020E901000863470008B53D000871
:1000100061470008B51A000871520008000000008E
:10002000000000000000000000000000414A00083D
:10003000E51B00080000000081470008994C0008FB
:10004000030200080302000803020008030200087C
:10005000030200080302000803020008030200086C
:10006000030200080302000803020008030200085C
:10007000030200080302000803020008030200084C
:10008000030200080302000803020008030200083C
:10009000030200080302000803020008030200082C
:1000A000030200080302000803020008030200081C
:1000B000030200080302000803020008030200080C
:1000C00003020008030200080302000803020008FC
:1000D000030200086552000803020008030200083A
:1000E00003020008030200080302000800F002F8FF
:1000F00000F06AF80AA090E8000C82448344AAF158
:100100000107DA4501D100F05FF8AFF2090EBAE855
:100110000F0013F0010F18BFFB1A43F0010318473B
:10012000C8630000E8630000103A24BF78C878C1B3
:10013000FAD8520724BF30C830C144BF04680C60ED
:10014000704700000023002400250026103A28BF35
:1001500078C1FBD8520728BF30C148BF0B60704739
:10016000662906F04880692900F0D480642900F0EF
:10017000D180752900F0CE806F2900F06581782943
:1001800000F08A810368DB0928BF41F08001632900
:1001900000F00186732900F00686E32900F011863D
:1001A000002070471FB500F09FFE040000200021D2
:1001B00005F0B0FC401C60600020002105F094FCBC
:1001C000E0601FBD10B510BD00F0F8FF1146FFF74D
:1001D000E9FF05F081F901F024F803B4FFF7F2FF1D
:1001E00003BC01F027F80000094880470948004790
:1001F000FEE7FEE7FEE7FEE7FEE7FEE7FEE7FEE7D7
:10020000FEE7FEE704480549054A064B7047000033
:10021000154D0008ED000008B8030020B8090020C3
:10022000B8050020B80500200FB41CB5074B06AA7E
:100230007B4469460090059800F08BFD00206946DC
:1002400000F09AFD1CBC5DF814FB0000450B00009B
:1002500070B5044685690068C10601D5302600E006
:100260002026C00707D070BDD4E901213046904751
:10027000206A401C20626D1EF6D570BD70B5044624
:1002800085690078C00707D170BDD4E9012120201D
:100290009047206A401C20626D1EF6D570BD09682B
:1002A0004A0501D540B27047C905FCD500B2704778
:1002B00009684A0501D5C0B27047C905FCD580B2AE
:1002C000704770B50C460546012A05D0287880068F
:1002D00000D5EA69002302E0012305E05B1C93429C
:1002E00002D2E05C0028F9D1A869E618C01AA8611A
:1002F000286A184428622846FFF7AAFF04E0D5E9D7
:10030000012114F8010B9047B442F8D32846FFF7B7
:10031000B5FF70BD2DE9F04106460024106875292F
:10032000314616A510D0FFF7BAFF002802DA404286
:1003300013A507E031688A0701D512A502E0490735
:1003400004D511A5012401E0FFF7B2FF00210A2224
:1003500006F1240709E0B0FBF2FCB0FBF2F302FB6C
:100360001C00303078541846491C0028F3D123462D
:100370002A463046BDE8F04100F07DBA000000009A
:100380002D0000002B000000200000002DE9FF5F81
:1003900015468A460446DFF8AC80F8440027D8E9C1
:1003A00000103E46CDE9001010E03AF816106A46FB
:1003B00002A800F04AFD411C07D02178890603D528
:1003C000E269391891420DD80744761C20788006DE
:1003D00002D5E069B84205DDAE42E6DB3AF8160028
:1003E0000028E2D1A069C01BA0612046FFF730FFC2
:1003F000D8E90010CDE90010002017E03AF81810F5
:100400006A4602A800F021FDB0F1FF3F81460BD003
:1004100000250DF1080B05E0D4E901211BF80500CA
:1004200090476D1C4D45F7D308F10100B04280465E
:10043000E4DB206A384420622046FFF71FFFBDE856
:10044000FF9F0000DE5F000070B504462146106883
:10045000FFF72EFF002104F1240505E000F007025C
:100460003032C0086A54491C0028F7D120680023A4
:1004700007A2050707D5800600D421B1E069012352
:1004800004A2401EE0612046BDE8704000F0F3B9D0
:10049000000000003000000070B504460D46214603
:1004A0001068FFF705FF2188090502D50F4A7A4435
:1004B00002E00E4A7A440E32002104F1240305E0E2
:1004C00000F00F060009965D5E54491C0028F7D124
:1004D00020780023000704D5702D02D009B1022333
:1004E00011322046BDE8704000F0C5B9D25E000070
:1004F0002DE9F05F894604464FF0000ADFF874B139
:10050000FB44C0F820A02046E1688847002874D04A
:10051000252806D0D4E901219047206A401C20629A
:10052000F1E700265F462046E16888472028054617
:1005300007DB312D05D2781910F8200C08B10643DD
:10054000F1E7B00701D526F00406C4F81CA0002787
:10055000C4F818A02A2D09D0284604F0CEFE38B3DE
:1005600004EB8708303DC8F8185019E059F8041B0F
:10057000204604EB87029161E1688847012F054618
:1005800018D1E069002820DA26F020061DE0D8F80E
:10059000180000EB800005EB40003038C8F8180068
:1005A0002046E1688847054604F0A7FE0028EED102
:1005B000012F0AD02E2D08D12046E16888477F1CE4
:1005C0000546022F46F02006C4DBA069002803DAA6
:1005D000404246F00106A061F00701D026F0100667
:1005E0006C2D0BD0682D09D04C2D39D06A2D35D00B
:1005F000742D35D07A2D33D016E038E0E1682F46DF
:1006000020468847B842054609D16C2F26D04FF4C2
:100610008060E168064320468847054604E06C2F69
:100620001AD04FF4807006430DB3A5F1410019288C
:1006300002D8203546F400664A4629462046266000
:100640004E46FFF78DFD80B101280BD0F61D26F038
:10065000070000F1080956E74020E4E78020D8E7CA
:100660000020D6E706F104094DE7284652E7206A44
:10067000BDE8F09FA85E000070B5064600F0ECF8FB
:100680000468054630460A22002100F0A6FB2C60D3
:1006900070BD00F0FBBB40EA0103024630B59B078A
:1006A00010D14FF0013400E008C208C91D1B9D4362
:1006B00015EAC41FF8D013F0FF0102F8011B0DD09A
:1006C0001B0AF8E711F8013B002B02F8013B05D0AB
:1006D00011F8013B002B02F8013BF3D130BD10B5FE
:1006E000431C02E010F8011B71B18107FAD14FF0F1
:1006F000013202C88C1A8C4314EAC211F9D0C01A14
:100700000A0603D0C01E10BDC01A10BD0A0401D0D5
:10071000801E10BD0902FCD0401E10BD10B5203A4D
:10072000C0F00B80B1E81850203AA0E81850B1E8AA
:100730001850A0E81850BFF4F5AF5FEA027C24BF60
:10074000B1E81850A0E8185044BF18C918C0BDE857
:1007500010405FEA827C24BF51F8043B40F8043B20
:1007600008BF7047D20728BF31F8023B48BF11F8D5
:10077000012B28BF20F8023B48BF00F8012B70472F
:100780004FF0000200B5134694469646203922BF2A
:10079000A0E80C50A0E80C50B1F12001BFF4F7AF75
:1007A000090728BFA0E80C5048BF0CC05DF804EB57
:1007B000890028BF40F8042B08BF704748BF20F8C5
:1007C000022B11F0804F18BF00F8012B704700007A
:1007D0004FF0013C50F8042B51F8043B9A4221D1D0
:1007E000A2EB0C03934313EACC1317D150F8042B5C
:1007F00051F8043B9A4215D1A2EB0C03934313EA40
:10080000CC130BD150F8042B51F8043B9A4209D178
:10081000A2EB0C03934313EACC13DBD04FF00000A0
:10082000704700BFD01A01BAB1FA81F101F0180186
:1008300022FA01F0CB40C1F12001DBB2C0B2C01AF4
:100840002CFA01F3D11A914311EAC311E6D1704792
:1008500070477047704700000048704758030020F9
:1008600010B5FFF7F9FF006810BD10B50446FFF79B
:10087000F3FF046010BD2DE9F0470D4699469246FE
:10088000044600F124080168880604D5E06921F0D7
:100890001001216000E00120A84201DD471B00E0BB
:1008A0000027A1697A1902EB0900081AA0612078D3
:1008B000C00602D42046FFF7CBFC002608E0D4E9AE
:1008C00001211AF806009047206A401C761C20621D
:1008D0004E45F4DB2078C0060AD52046FFF7B8FC69
:1008E00006E0D4E9012130209047206A401C2062B4
:1008F000381EA7F10107F4DC07E0D4E9012118F85C
:1009000005009047206A401C2062281EA5F10105C1
:10091000F3DC2046FFF7B2FC2078000602D5022067
:10092000BDE8F0870120FBE770472DE9FF4F0C463B
:100930001E464FF0FF378BB0D2E90001DDF8608032
:100940000A908A46C1F30A5505B93D46002108467A
:100950004FF00000BAF1000F00F4400005DA00EBA0
:1009600080004FF4400101EA50004FEA9059B9F17C
:10097000010F00DDB9460A9850EA4A000ED044F64D
:100980001050A5F2FF3545432F14B8F1000F1ED0CB
:100990007542291E1EDDC9F100021CE0B8F1010FED
:1009A0004FF0000001D0302103E0F24305E0215474
:1009B000401CB042FBDB30460022002121540B9941
:1009C000C1F80880C1E900200FB0BDE8F08FBD1B61
:1009D0006D1CDEE74A4600DA694206A800F05EFBBD
:1009E00006AB93E8070003AB83E8070050460A997B
:1009F00000F027FC8DE80700A0F500501F3800909C
:100A00000398002D0ADD42F21F014A4608440023E4
:100A100003A90390684600F090FE09E0A0F500509D
:100A20004A461F38002303A90390684600F09AFE47
:100A30008DE807000004000C03D04FF0FF304108A0
:100A400000E01046B8F1000F03D0002200921546D6
:100A50001EE0751E05D400F04BFA303262556D1E53
:100A6000F9D5B3460122084302D000227F1C04E0DE
:100A70002078302801D100227F1E002A099784D0D7
:100A80001DE0112D07DA00F033FA303262556D1C8B
:100A900050EA0102F5D1084302D00098C8B10EE037
:100AA0000021681E05E0235C625C63542254401EF2
:100AB000491C8142F7DBAB46A81B401E0990002071
:100AC00004F80B000B98099AC0F80880C0E9002BC5
:100AD0007AE711264FF0000857E72DE9F04F8846D6
:100AE0000446D21D22F0070191B0D1E90001CDE901
:100AF0000A0104F0D2FB02460B98C00F01D02D2052
:100B000007E02068810701D52B2002E0202101EABF
:100B1000C000032A099001D0072A05DB034641469D
:100B2000204600F02BFA0BE12078800601D5E06921
:100B300000E00620B8F1650F814606D0B8F1660FD7
:100B400018D0B8F1670F70D131E00020B9F1110F62
:100B5000009001DB112301E009F101030AAA01A9B8
:100B60000CA8FFF7E2FEDDE90C70002609F1010593
:100B7000834647E001204B4600904FF000470AAA09
:100B800001A90CA8FFF7D1FEDDE90DB00C995D4677
:100B9000002610B909F101000D18B9EB050003D4C6
:100BA000C0F1FF3609F10105A5EB09002BE0B9F111
:100BB000010F01DA4FF001090020B9F1110F009087
:100BC000484601DD112300E003460AAA01A90CA84A
:100BD000FFF7ABFEDDE90C704D460026834620781A
:100BE00000070AD4AB4500DA5D4601A8012D04DDFB
:100BF000411911F8011C302907D04F4502DA17F1CD
:100C0000040F04DA012082460FE06D1EEEE7002F8C
:100C100002DCED1B3E4403E0781CA84200DD7D1C95
:100C2000B81B00F1010A4FF000472078000703D4F9
:100C3000AA4501DB4FF0FF3A0021B7F1004F0DF15B
:100C400043088DF8431024D002202B23002F01DA13
:100C50007F422D230A21021EA0F1010000DC5FB1BA
:100C600097FBF1FC97FBF1F201FB1C7C17460CF1A2
:100C7000300C08F801CDEEE7A8F1010003702188DF
:100C8000090501D5452100E06521A0F1010800F822
:100C9000011C09980FA9A1EB0807FF1D00B1012055
:100CA000411901EBEA70A1693844081A401EA0619D
:100CB0002078C00602D42046FFF7CAFA099828B166
:100CC000D4E901219047206A401C20622078C006A8
:100CD00022D52046FFF7BCFA1EE0002E04DBB34508
:100CE00002DD01A8805D00E03020D4E901219047B9
:100CF000206A401C2062761CAAF101005FEA000A0B
:100D00000AD100F0F1F8C0680168405CD4E9012123
:100D10009047206A401C2062281EA5F10105DCDCFA
:100D200007E0D4E9012118F8010B9047206A401C24
:100D30002062381EA7F10107F3DC2046FFF79EFA78
:100D4000032011B041E6000001694A1C02610878E5
:100D5000704700B58FB0CDE90131002105910549FB
:100D60007944CDE9031011466846FFF7C1FB0FB087
:100D700000BD0000E5FFFFFF0A6802F8010B0A60F2
:100D8000704710B5436913B1AFF3008001E0FFF77E
:100D900098FA012010BD127800F124010A70002297
:100DA0004A700122EDE711684FF0FF32E9E710B514
:100DB000436913B1AFF3008001E0FFF7E7FA0120C8
:100DC00010BD128800F1240182840022C284012215
:100DD000EDE711684FF0FF32E9E72DE9F047914662
:100DE0000F4680460446002614F8015B2DB100F042
:100DF00073F80068405DC007F6D12B2D02D02D2D71
:100E000018D0641E4A463946204600F0F7F827B14C
:100E10003968A14201D1C7F800804FF00204710582
:100E20000BD54042002803DDFFF716FD0460A00744
:100E3000BDE8F08746F48066E4E70028F8DAFFF7BB
:100E40000BFD04606FF00040F2E770B516460C46EB
:100E5000054600F041F8036893F80101012806D027
:100E6000FF2C0FD8185D68B101202C7070BDD3F82D
:100E700007013246214603F2071303442846BDE822
:100E8000704018474FF0FF3070BD00002DE9F04171
:100E900015460E46040002D12C6804B90BA4204666
:100EA00000F07EF90444207870B127463146384678
:100EB00000F066F90444207810B1002004F8010B1A
:100EC00038462C60BDE8F0810027F9E700000000FB
:100ED000004870475803002010B500F005F8001DC9
:100EE00010BD00BF314C000000487047780300205F
:100EF00030B5B0F10A024FEA900E71F100034EEAEC
:100F0000817EB0EB0E0061EB91014FEA101E4EEABC
:100F1000017E10EB0E0041EB11114FEA102E4EEA4C
:100F2000016E10EB0E0041EB11214FEA104E4EEA1C
:100F3000014E10EB0E0041EB1141401841F1000150
:100F40004FEAD00040EA41704FEAD10110EB800532
:100F50004FEA810444EA907444EB01046D1944EBB8
:100F60000404521BA3414FF0000348BF0A3200D5CE
:100F700030BD401C41F1000130BD00002DE9F041C1
:100F80001F46044603260168072A01F4006004DBBB
:100F900008B116A505E016A503E008B115A500E007
:100FA00015A521F010002060A069C01EA0610FB13E
:100FB000401EA0612046FFF74BF94FB1D4E9012153
:100FC00038469047206A401C2062C01C206206E020
:100FD000206AFAE7D4E9012115F8010B9047761E43
:100FE000F8D22046FFF74AF9BDE8F0814E414E00A5
:100FF0006E616E00494E4600696E66002DE9F05F35
:10100000824615468B4600270AF10104B94600784E
:10101000302801D09DB113E014F8010B0127782886
:1010200003D0582801D045B10AE00DB1102D07D1E9
:10103000002714F8010B102502E0082500E00A251E
:101040000026B0460EE005FB080005FB06F101276F
:101050001FFA80F801EB1046B6F5803F00D3B94681
:1010600014F8010B294600F0CEF80028EBDABBF1AA
:10107000000F05D00FB1641E00E05446CBF80040CD
:10108000B9F1000F06D0FFF7E7FB02210160C81E8F
:10109000BDE8F09F48EA0640FAE700002DE9F04776
:1010A000814616468AB0354878440DC88DE80D0053
:1010B00032487844801C03AC0DC884E80D0041F62A
:1010C0009B300844372190FBF1F290FBF1F5A5F13C
:1010D000800501FB12041B3C02D56442012000E0A4
:1010E0000020DFF898A080460027FA44AAF1BE0A43
:1010F0000EE0E0070AD03246684607EB47010123BD
:101100000AEB810100F02EFB8DE8070064107F1CC4
:10111000002CEED1194F7F44AE3F19E0E80715D0FF
:1011200007EB04100DF1180A90E80E008AE80E0093
:10113000C068F04201D1981908903246012306A9EF
:1011400003A800F00FFB03AB83E807006D10641CDD
:10115000002DE3D14FF0010332466946B8F1000F8C
:1011600003A802D000F0E9FA01E000F0FBFAC9E9B7
:101170000001C9F808200AB0BDE8F087D05300008C
:1011800030B503461D781DB10A4603E0AC4201D1DB
:10119000181A30BD12F8014B002CF7D15B1CF1E797
:1011A00030B503461D783DB10A4612F8014B1CB11B
:1011B000AC42FAD15B1CF5E7181A30BD7546FFF753
:1011C00087FEAE4605006946534620F00700854677
:1011D00018B020B5FFF716F8BDE820404FF0000624
:1011E0004FF000074FF000084FF0000B21F007010F
:1011F000AC46ACE8C009ACE8C009ACE8C009ACE852
:10120000C0098D4670473A2800D2303820F02002BD
:10121000412A01D3A2F13700884201D34FF0FF30B9
:10122000704710B50446AFF300802046BDE810407B
:10123000FEF7D3BF01491820ABBEFEE7260002002F
:1012400070475FEA400C08BF91F0000F4FEA8C2313
:101250004FEAC12243EA51514FEA1C5018BF00F532
:10126000F0404FEA300018BF41F000415FEA6C5C8B
:1012700000F02980BCF1FF3F08BF40F0804070477C
:10128000130C06BF12044FF0100C4FF0000C130E9D
:1012900004BF12020CF1080C130F04BF12010CF171
:1012A000040C930F04BF92000CF1020CD30F04BF87
:1012B00052000CF1010C11464FF00002A0F11F008A
:1012C000A0EB0C00704711F0004F08BF704731F0E1
:1012D00000413FF4D5AF0B0C06BF09044FF0100CD2
:1012E0004FF0000C0B0E04BF09020CF1080C0B0FA1
:1012F00004BF09010CF1040C8B0F04BF89000CF131
:10130000020CCB0F04BF49000CF1010CCCF12003FF
:10131000A0EB0C0022FA03F302FA0CF241EA0301FB
:1013200000F10100704720F07F4C80EA030023F0B9
:101330007F47ACEB070303F57C5300F0004003F15B
:10134000FF032DE980494FEA154B09B44FEA1443D6
:1013500025EA0B4E24EA03480FF2042606EB132776
:1013600049083E785FEA320203FB0667C7F50007CB
:1013700007FB06F64FEA54374FEAD64606F1020657
:1013800007FB066CCCF1005C4FEA1C472CEA074CCB
:1013900007FB06F40CFB06F504EB15464FEA961620
:1013A00034BF00204FF000404FEAD13706FB07FC66
:1013B0004FEA1C4C0CFB0BF7D21B03FB0CF761EB49
:1013C00007010CFB0EF7B0EB074072EB17420CFB6A
:1013D00008F734BFA2EB0742B2EB074261EB1741BB
:1013E0004FEA0C444FEA910706FB07FC4FEA1C4CFE
:1013F0000CFB0BF7B0EBC74072EB573203FB0CF75B
:1014000034BFA2EBC742B2EBC74261EB57310CFBD2
:101410000EF7B0EBC70072EB57720CFB08F734BF46
:10142000A2EBC702B2EBC70261EB5771039F4FEA11
:10143000816141EA921104EBCC044FEAD1374FEAC3
:10144000826206FB07FC42EA90124FEA80604FEA94
:101450001C4C0CFB0BF7D21B03FB0CF761EB0701D9
:101460000CFB0EF7B0EB074072EB17420CFB08F7D2
:1014700034BFA2EB0742B2EB074261EB17414FEAE0
:101480008C554FEA910704EB9C2406FB07FC4FEABE
:101490001C4C0CFB0BF7B0EBC74072EB573203FB55
:1014A0000CF734BFA2EBC742B2EBC74261EB573136
:1014B0000CFB0EF7B0EBC70072EB57720CFB08F792
:1014C00034BFA2EBC702B2EBC70261EB577115EB59
:1014D0004C254FEA816141EA92114FEA82624FEA5C
:1014E000D13742EA901206FB07FC44F100044FEAB0
:1014F00080604FEA1C4C0CFB0BF7D21B03FB0CF774
:1015000061EB07010CFB0EF7B0EB074072EB1742E3
:101510000CFB08F734BFA2EB0742B2EB074261EBCA
:10152000174115EB1C154FEA813141EA92414FEA10
:10153000823242EA90424FEA80304FEA0C7644F120
:10154000000448EA03434EEA0B484FF0000EB2EBAA
:10155000080C71EB030724BF624639464EEB0E0EB2
:101560004FF0000B0018524149414BEB0B0BB2EB13
:10157000080C71EB03077BF1000B24BF6246394670
:101580004EEB0E0E4FF0000B0018524149414BEB51
:101590000B0BB2EB080C71EB03077BF1000B24BFC4
:1015A000624639464EEB0E0E51EA020718BF46F06E
:1015B000010616EB0E7655F1000254F1000103D539
:1015C000BDE88901BDE80088BDE88901BDE80048A3
:1015D000B619524141EB0101A3F10103704780802C
:1015E0007F7E7D7C7B7A797877767675747372717D
:1015F00071706F6E6E6D6C6C6B6A6A696868676635
:1016000066656464636362616160605F5F5E5E5DC6
:101610005D5C5C5B5B5A5A5959585857575656553A
:1016200055555454535352525251515050504F4F9C
:101630004F4E4E4D4D4D4C4C4C4B4B4B4A4A4A49EC
:10164000494948484847474747464646454545442F
:101650004444444343434342424242414141002BBC
:101660009C4630D477002BD01CB54FEA370703B423
:101670004FF010004FF01001BAF1000F06D0BCF18E
:10168000000FDCBF40F0080040F008014FF0000000
:101690000FBCBDE810400BF1010BBBF1010F08BFFF
:1016A0005FEA170722BF12F1010211F101014FF0A9
:1016B000004143F1000300F0004043EA000070479E
:1016C000F9D35708D0E746EA064613F1400F4FEA30
:1016D00016461FDD13F1200FDFBF16430A46002117
:1016E00020335B42BED0C3F1200746EA064602FA29
:1016F00007F74FEA164646EA0706C3F1200722FA23
:1017000003F201FA07F721FA03F14FF0000342EA6E
:101710000702A7E746EA020646EA06464FEA1646E9
:1017200046EA0106BCBF46EA0646360C4FF0000307
:101730004FF000024FF0000194E72DE9804C9A46EB
:10174000934670B491E8380007C831EA400C48BFAE
:1017500034EA430C03D5FFF7E6FDFFF780FFF0BC4A
:10176000BDE8008C2DE9804C9A46934670B491E810
:10177000380007C810F0804F08BF13F0804F03D126
:1017800000F005F8FFF76BFFF0BCBDE8008C20F01F
:101790007F4780EA030023F07F4C07EB0C03A3F59F
:1017A0007C5300F00040A3F1FE0392F0000F00F024
:1017B000B38095F0000F00F077802DE901494FEAE2
:1017C00011404FEA144621EA004800FB06FC24EAD7
:1017D000064708FB06F607FB08F800FB07F718EBBF
:1017E00006484CEB164C4FEA124B18EB07484FEAF1
:1017F00015464CEB174022EA0B4E0BFB06FC25EA84
:1018000006470EFB06F607FB0EFE0BFB07F71EEB6B
:10181000064E4CEB164C4FF000061EEB074E4CEB01
:10182000174B18EB0B0840F1000018EB0E0B58EBB0
:10183000000840F100008F1A4FF000013CBFC9437F
:10184000661B14BFB5EB040C00213CBFC943F61B5B
:101850004FEA17444EEA8E0E27EA04454FEA1C472A
:1018600004FB07622CEA074C05FB07F70CFB05F6A7
:1018700004FB0CFC16EB074642EB174216EB0C463A
:1018800042EB1C421BEB060658EB0202414146EAC2
:101890009E0601D5BDE80189B619524141EB01010F
:1018A000A3F10103BDE801894FEA14454FEA11474E
:1018B00024EA054621EA074C05FB07F406FB07F777
:1018C0000CFB06F105FB0CFC11EB074144EB174444
:1018D0004FEA124711EB0C4144EB1C4422EA074C3F
:1018E00005FB07F206FB07F70CFB06F605FB0CFCF5
:1018F00016EB074642EB174216EB0C4642EB1C4533
:101900006A1854F1000148BF7047B619524141EBC3
:101910000101A3F10103704795F0000F37D04FEAA2
:1019200011424FEA144721EA024624EA074C02FB1F
:1019300007F106FB07F70CFB06F402FB0CFC14EBAB
:10194000074441EB17414FEA154714EB0C4441EBB8
:101950001C4125EA074C02FB07F506FB07F70CFBC9
:1019600006F602FB0CFC16EB074645EB174516EB9B
:101970000C4645EB1C42121951F1000148BF70475B
:10198000B619524141EB0101A3F1010370474FEA3F
:1019900014454FEA114724EA054621EA074C05FBA6
:1019A00007F106FB07F70CFB06F24FF0000605FBFC
:1019B0000CFC12EB074241EB174112EB0C4251EBCE
:1019C0001C4148BF7047921841EB0101A3F101038C
:1019D0007047000070B5044600688168C943C907B4
:1019E00017D1816821F00101816000F007FE0546F2
:1019F0000AE000BF00F002FE401B022804D9206864
:101A00008068C043C00706D020688068C043C00714
:101A1000F0D0002070BDA06A40F01000A062E06A23
:101A200040F00100E062012070BD0000F8B5002622
:101A30000446009600688168C943C9072DD08168B3
:101A400041F001018160164816490068B0FBF1F0D1
:101A500000E0401E00900028FBD100F0CFFD0546BD
:101A600016E000BF00F0CAFD401B022810D9206814
:101A70008068C043C0070BD0A06A40F01000A0628D
:101A8000E06A40F00100E06284F824600120F8BDC3
:101A900020688068C043C007E4D10020F8BD000082
:101AA0001C00002040420F000149022008707047CE
:101AB00000000020FEE70000F8B56A4611A1FEF71D
:101AC000E8FD07466A4610A10020FEF7E2FD054644
:101AD000002F0BD000240D4E04E03846FEF778FEB0
:101AE00028B1641C56F834100029F6D1F8BD06EB75
:101AF000C40041680029F9D005B903A528468847E4
:101B0000F8BD00003A000000000000002463000857
:101B1000012102F051B9000000B5094A85B0914297
:101B200002DD032005B000BD0146684602F052FE0A
:101B300004490098884201DA0220F3E70020F1E727
:101B40000000704200002F450149012008707047D5
:101B50000300002070B50C460968154A91420EDD5D
:101B6000451CE8B26169FFF7D7FF0426032805D0BA
:101B7000022803D0E8B202F0D9FE08B1267670BD83
:101B80000C4BE26802210C489A4205DB2176027870
:101B9000012AF4D1017070BD012222760378012B55
:101BA00000D1017084F8202000F028FD606270BD33
:101BB000000048440000C442000000200149002009
:101BC00008707047030000200449487001208870A5
:101BD0000220C8700021024803F012B82C00002037
:101BE0003C020020704700002DE9F04105462148E5
:101BF0008846214940680068884201D1252608E0CE
:101C00001E49884201D1262603E01D49884200D1A1
:101C10002726304601F0BEF81A4900273C46D1E994
:101C200002324868096809E012F800C0BCF10A0FE6
:101C300007D0401CB0FBF3FC03FB1C008142F3D136
:101C400011E00127A8F1010805E0285D0A2808D065
:101C5000444506D2641C29190A4800F015F80028EA
:101C6000F3D000202855304601F0A5F83846BDE8ED
:101C7000F0810000300000200038014000440040A6
:101C80000048004048020020D0E90032934202D1CF
:101C90004FF0FF307047C3689A5C0A704168491C76
:101CA00041608268914201D3002141600020704769
:101CB000FEB506460120CDE90010072002906946D6
:101CC000304600F0C7F8244D68BB304600F09CFA5F
:101CD0004FF47A71304600F0F9F9304600F038F9E7
:101CE00084B2304600F0F0FA204604F0C9F81B49EF
:101CF00003F0CCFF1A4E314604F00AF904461948A5
:101D0000844210DA184884420DDD2146304604F042
:101D1000FDF9164E314604F0FBF8214603F0B6FFFC
:101D2000B0F5000F01DA2846FEBD314603F0AEFFE4
:101D300003F00AFB0E4904F0EBF80E4903F032FF02
:101D400001464FF07E5003F0A1FF03B00A49BDE801
:101D5000F04004F0DBB90000008088C300F07F454C
:101D60003333534000005040CDCC4C3D00401C4626
:101D700093A198390FCF5B3B33938843F8B5002587
:101D80000446009590F8240001280BD0012084F827
:101D900024002046FFF71EFE2046FFF747FE060000
:101DA00002D050E00220F8BDA06A20F4885040F034
:101DB0000200A062022001F03DF825490968B1FB4C
:101DC000F0F0400000E0401E00900028FBD12068A9
:101DD000816841F00801816000F010FC074608E0CE
:101DE00000F00CFCC01B0A2803D92068806800079B
:101DF00015D4206880680007F2D42068816841F01B
:101E00000401816000F0FAFB074612E000F0F6FBE7
:101E1000C01B0A280DD920688068400709D5A06A30
:101E200020F0020040F01000A06284F8245001204D
:101E3000F8BD206880684007E8D4A06A20F002005E
:101E400040F00100A06284F824503046F8BD000044
:101E50001C000020F8B50024009490F824202546AA
:101E6000012A12D0012280F824204A681F23072A61
:101E70000DD20668776B521E02EB820293409F439D
:101E80000B6893401F43776319E00220F8BD066892
:101E90000D2A0AD2376BD21F02EB820293409F4376
:101EA0000B6893401F43376309E0F76A0D3A02EB72
:101EB000820293409F430B6893401F43F7620A6876
:101EC000072306680A2A0AD3F7680A3A02EB420295
:101ED00093409F438B6893401F43F76008E0376946
:101EE00002EB420293409F438B6893401F4337614C
:101EF0000A68102A01D0112A20D1124B02689A4296
:101F000017D193681B0219D4936843F400039360BC
:101F10000968102912D10C490C4A0968B1FBF2F189
:101F200001EB8101490000E0491E00910029FBD12D
:101F300004E0816A41F020018162012480F824508C
:101F40002046F8BD002401401C00002040420F0044
:101F50000068C06C704700002DE9F0414FF00007A9
:101F600004003D467ED0A06A002628B9E66284F8C7
:101F70002460204600F07EF82046FFF72BFDA16A82
:101F8000C90600D420B1A06A40F01000A06269E048
:101F9000A16A21F4885141F00201A1626268E169FD
:101FA000237B0A4347EA43010A43A1684FF4807741
:101FB000B94209D0012907D05FF0000194F814C09C
:101FC000BCF1010F02D00AE03946F7E7F3B1A36A8A
:101FD00043F02003A362E36A43F00103E362236852
:101FE000D3F804C02CF4694C4CEA010CC3F804C0CB
:101FF00021688B68DFF870C003EA0C0313438B6021
:10200000A168B9420BD0012909D00CE0DFF85CC00F
:10201000A3690CEB43330B4343F40061DFE7218AF0
:102020000D05A5F580152168CB6A23F470032B43B9
:10203000CB62216889680E4B1940914208D1E66253
:10204000A16A21F0020141F00101A162BDE8F08125
:10205000A06A20F0020040F01000A062E06A40F0A8
:102060000100E0620120F1E7FDF7E1FF00E0FFFF82
:10207000FE0E1FFF00B585B0002100910191029175
:10208000039100680E49884218D10E48816941F4D5
:1020900000718161816901F400710491816941F0ED
:1020A000040181618069694600F0040004900F20FA
:1020B000009003200190044800F0A2F905B000BD93
:1020C0000024014000100240000801402DE9F843BF
:1020D00000270D460446009700F090FA80462068DD
:1020E0008168C90508D5A06A40F02000A06284F884
:1020F00024700120BDE8F8834168C90503D4C06A93
:1021000010F4700F2AD0022000F094FE3B490968B9
:10211000B1FBF0F62068036939490B424FEA6101CF
:102120004FEAA1121FD1C3684FEA611C13EA0C0FDA
:1021300019D103690B4225D1C068104222D1142065
:1021400023E0681C0AD02DB100F058FAA0EB08007B
:10215000A84203D920680068800725D52068006858
:102160008007EED52DE003690B4202D1C168114210
:1021700006D0026923490A4206D1C068084203D149
:10218000542002E0292000E0FC204643009816E09D
:10219000681C11D02DB100F031FAA0EB0800A84264
:1021A0000AD90098B04207D2A06A40F00400A062A9
:1021B00084F8247003209DE70098401C0090B042F2
:1021C000E6D321686FF012000860A06A40F4007046
:1021D000A06220688068C0F3424007280CD1207BB1
:1021E00050B9A06A20F48070A062A06AC00403D431
:1021F000A06A40F00100A06200207BE71C000020E4
:10220000244992244992240070B5044690F8240091
:1022100001280DD0012084F824002046FFF706FC99
:1022200002004FF0000005D084F82400104670BD75
:10223000022070BDA16A40F20123994341F48071EC
:10224000A1621F4D23681F49AB4218D10E6816F4D6
:10225000702F14D0A66A46F48016A6620E68760522
:1022600005D5A66A26F4005646F48056A662A66AEC
:10227000F6040AD5E66A26F00606E66206E0A66AD5
:1022800026F48016A6625E68E9E7E06284F824001E
:102290006FF00200186020688368C3F34243072B85
:1022A00005D1A84208D1096811F4702F04D08168C3
:1022B00041F480118160B9E7816841F4A001F9E738
:1022C000002801400424014010B5044690F8240081
:1022D000012807D0012084F824002046FFF77AFB6C
:1022E00010B107E0022010BDA16A21F4885141F02D
:1022F0000101A162002184F8241010BD10B590F8EE
:1023000021100022022905D00421816380F82020B9
:10231000012010BD01680B6823F00E030B600168FB
:102320000B6823F001030B6090F84030C46B01216F
:1023300001FA03F3636080F8211080F82020104632
:1023400010BD000010B590F821100024022903D020
:102350000421816301243DE001680A6822F00E0235
:102360000A6001680A6822F001020A601A4A0168DC
:10237000914201D1012121E0174A1432914201D149
:1023800010211BE0144A2832914201D1891515E031
:10239000114A3C32914201D189140FE00E4A503269
:1023A000914202D14FF4803108E00B4A64329142ED
:1023B00002D14FF4801101E04FF08071064A083AD3
:1023C0005160012180F82110002180F82010416B1C
:1023D00001B18847204610BD0800024070B5044690
:1023E00000F00CF90546601C02D004480078044453
:1023F00000F004F9401BA042FAD370BD1000002089
:102400002DE9F84FDFF8B8910024A9F1040B234619
:102410000F2709F1040AABF1040EC9E00125A5401C
:102420002A40AA427DD1674ED1F804C0ACEB060821
:10243000B44532D014DCBCF1030F3AD009DCBCF156
:10244000000F2AD0BCF1010F1CD0BCF1020F31D11A
:102450001DE0BCF1110F17D0BCF1120F2AD119E009
:10246000B8F5881F19D006DCB8F5803F15D0B8F54F
:10247000801F1FD111E0B8F5001F0ED0B8F5041F62
:1024800018D10AE0CB6815E0CB681B1D12E0CB68C1
:1024900008330FE0CB680C330CE08B682BB1012BB9
:1024A0004FF0080303D0456104E0042302E0056116
:1024B00000E00023FF2A01D8064601E000F10406EF
:1024C0004FEA840501D9A5F12005D6F8008007FA66
:1024D00005FC28EA0C0803FA05F548EA0508C6F8E1
:1024E00000804D68ED0062D5374DAE6946F00106BB
:1024F000AE61AD6924F0030605F001050095334D8A
:1025000006EB050CDCF80850A607360F07FA06F8AC
:1025100025EA0805DFF8B880404503D14FF00008F0
:1025200017E044E0DFF8AC80404502D14FF00108ED
:102530000FE0DFF8A480404502D14FF0020808E028
:10254000DFF89880404502D14FF0030801E04FF0DA
:10255000040808FA06F848EA0508CCF808804D682F
:10256000D9F80060ED024D4601D5164300E09643D0
:102570002E604D68DAF80060AD02554601D516436D
:1025800000E096432E604D68DBF80060AD035D46C9
:1025900001D5164300E096432E604D68DEF80060DA
:1025A000ED03754601D5164300E096432E60641C8A
:1025B0000D682A46E5407FF431AFBDE8F88F000092
:1025C000080401400000111000100240000001400A
:1025D00000080140000C01400010014000140140BF
:1025E000C26821EA02030A4043EA024101617047DE
:1025F0000AB1016170470904FBE7000001488068E7
:10260000704700001000002070B5040025D094F839
:102610003D00002520B984F83C50204600F034FBF2
:10262000242084F83D002068016821F00101016048
:102630002068016841F4004101602068016821F4CC
:102640000041016000F054FD4D4A6168914201D89B
:102650004C4900E04C49884201D2012070BD4B49F1
:102660002368B0FBF1F15E6826F03F060E435E6022
:102670006368934206D94FF4967359434FF47A73C3
:10268000B1FBF3F12368491C1E6A26F03F06314373
:1026900019626168914210D84900401EB0FBF1F206
:1026A000521CC2F30B02042A01D2042022E0B0FB28
:1026B000F1F0401CC0F30B001CE0A268F2B301EB88
:1026C000C10303EB0116431EB3FBF6F35B1C43F49B
:1026D00080431B0549D092B301EBC10202EB01110B
:1026E000401EB0FBF1F0401CC0F30B0040F48040F2
:1026F00040F400402168CA694CF6FF739A431043C6
:10270000C861D4E9071001432068026822F0C002C2
:1027100011430160D4E9030101432068826848F253
:10272000FF339A4311438160D4E9050108432168CE
:10273000CA6822F0FF021043C86001E00EE016E014
:102740002068016841F0010101602564202084F8BF
:102750003D00256384F83E50002070BD01EB41062A
:10276000431EB3FBF6F35B1CB3E70120C2E701EBAA
:102770004101401EB0FBF1F0401CC0F30B00B7E775
:10278000A086010080841E0000093D0040420F0029
:102790002DE9FF4F81B089460446FFF72FFF05461C
:1027A00094F83D004FF0000820287DD11923012224
:1027B00050492046009501F02FFC002874D194F870
:1027C0003C00012870D0012084F83C00206801689A
:1027D000C90703D1016841F0010101602068016867
:1027E00021F400610160242084F83D000026266465
:1027F0004148E0624FF0011B20272068016841F446
:10280000807101600095002259462046049B01F02A
:1028100003FC50B120680068C00502D54FF4007079
:102820002064032005B0BDE8F08F216809F0FE00A8
:102830000861FFF7E3FE2168054648694969C0F36E
:102840004000C1F380214FF0A00A0FE0FFF7D6FE51
:10285000411B0498814200D808B984F83DA0216842
:1028600048694969C0F34000C1F3802194F83D20D4
:10287000A02A02D008B90029E8D084F83D70206869
:102880004169C943890716D4016841F400710160A8
:102890002068416980691923012216492046009564
:1028A00001F0BAFBB8B900E021E084F83D7084F88B
:1028B0003C600020B6E7016841F4007101602168C6
:1028C0006FF480604861192301220A49204600956F
:1028D00001F0A2FB08B10120A4E7039808F1010868
:1028E00080458AD384F83D7084F83C60F3E7022089
:1028F00098E70000020010000000FFFF2DE9FF4FE5
:1029000083B00025DDE910799A4693460446DDF848
:1029100048800095FFF772FE064694F83D00202897
:102920007CD11923012288492046009601F074FBCE
:102930000028F5D194F83C0001286FD0012084F8DC
:102940003C0020680168C90703D1016841F001011A
:1029500001602068016821F400610160222084F890
:102960003D00402084F83E0025646762A4F82A9068
:10297000608D20857548E062CDE9008653465A4651
:102980002046049901F04AFA00287CD1208DDFF816
:10299000C091202768B1012814D00228206801685E
:1029A0001ED041F480610160206841698069009017
:1029B000BCE02068416981690091016841F40071BF
:1029C0000160B3E02068016821F48061016072B6A3
:1029D0002068416981690091016841F400710AE051
:1029E00041F40061016072B620684169816900911B
:1029F000016821F48061016062B697E0032865D820
:102A000001280CD0022843464FF0000249462046D8
:102A100000960BD001F000FBA8BB0CE091E0324621
:102A20004146204601F09EFB68BB72E001F0F4FADB
:102A300048BB72B633E02068016821F48061016010
:102A400072B620680069616A0870606A401C606242
:102A5000208D401E2085608D401E60853D4846F2D9
:102A6000A8110068B0FBF1F0C0EBC00000EB8000E3
:102A70000090401E009007D020684069C043400786
:102A80000DD50098F5E727E044F8305F6773A5732C
:102A9000206940F02000206162B625731CE02068A8
:102AA000016841F40071016020680069616A087082
:102AB000606A401C6062218D491E2185618D491E1E
:102AC000618562B621680969017026E03246414697
:102AD000204601F047FB18B1012007B0BDE8F08F98
:102AE00020680069616A0870606A401C6062208D1D
:102AF000401E81B22185608D401E6085206842693C
:102B0000D243520712D4032903D1016821F4806112
:102B1000016020680069616A0870606A401C606238
:102B2000208D401E2085608D401E6085208D0028F0
:102B30007FF464AF84F83D7084F83E5084F83C50D4
:102B4000CBE70220C9E70000020010000000FFFFF1
:102B5000040001001C0000202DE9FF4F83B09A46BD
:102B6000DDE9119793460446DDF84080FFF746FD06
:102B7000054694F83D0020287FD1192301224049C1
:102B80002046009501F048FA002876D194F83C00E0
:102B9000012872D0012084F83C0020680168C90730
:102BA00003D1016841F0010101602068016821F44E
:102BB00000610160212084F83D00402084F83E003F
:102BC00000262664C4F82480A4F82A90608D20850D
:102BD0002C48E062CDE9007553465A4620460499D8
:102BE00001F09AF970B930E02A463946204601F0E2
:102BF000F1FA58B1206C042804D12068016841F42E
:102C000000710160012007B0BDE8F08F606A2168A3
:102C100000780861606A401C6062218D491E89B29B
:102C20002185628D521E628522685369DB435B07F2
:102C30000BD469B100781061606A401C6062208D1D
:102C4000401E2085608D401E6085208D0028CBD1E0
:102C50002A463946204601F0B3F90028CAD154F873
:102C60003D0B016841F400710160202004F81E0949
:102C7000E67766770020C6E7FFE70220C3E700009B
:102C8000020010000000FFFF10B586B00021009187
:102C900001910291039100680F4988421AD10F4CAB
:102CA000A06940F00800A061A069694600F0080032
:102CB0000490C02000901220019003200390084847
:102CC000FFF79EFBE06940F40010E061E06900F46A
:102CD0000010049006B010BD0054004000100240E7
:102CE000000C0140024881680278114481607047FD
:102CF00010000020074810B5016841F01001016084
:102D0000032000F085F80F2000F006F800F024F80A
:102D1000002010BD0020024070B50D4D04464FF458
:102D20007A712878B1FBF0F00A490968B1FBF0F03C
:102D300000F0B4FB48B9102C07D200222146501EE7
:102D400000F046F800206C6070BD012070BD0000EE
:102D5000100000201C0000200C4808B5816941F0DB
:102D600001018161816901F001010091C16941F0B6
:102D70008051C161C06900F08050009004484168F2
:102D800021F0E06141F00071416008BD0010024097
:102D90000000014000280DDB00F01F0201219140DE
:102DA0004009800000F1E020C0F88011BFF34F8F90
:102DB000BFF36F8F7047002809DB00F01F0201216D
:102DC00091404009800000F1E020C0F800117047F8
:102DD000F0B40E4B1B680C46C3F30223C3F1070586
:102DE000042D00D90425191D072901D2002300E074
:102DF000DB1E012606FA05F1491E214099409E403E
:102E0000761E16403143F0BC02F05BBA0CED00E0D8
:102E1000064900F0070208684FF6FF03184040EA31
:102E20000220034A10430860704700000CED00E0E8
:102E30000000FA0510B501460020234C012922D0DC
:102E4000022939D010291DD161682268D20119D513
:102E50001E48C1F38342C903805C0AD561681B4ADE
:102E6000C1F34041921E515C194AB2FBF1F1484353
:102E700001E0184948436168490203D44000032136
:102E8000B0FBF1F010BD226AC2F30121012903D188
:102E9000920701D5C80310BD022905D1626A9207C5
:102EA00002D549F6404010BD0329FCD121688903B1
:102EB000F9D54FF2244010BD00F02AF96168C1F342
:102EC0008131491C4900DBE700100240FC62000828
:102ED00000127A0000093D002DE9F843054600780C
:102EE000354CC00754D0E0690026C00008D4E06922
:102EF00040F08050E061E069012600F080500090D1
:102F00002E480168C90512D40168804641F48071D9
:102F10000160FFF773FB074605E000BFFFF76EFB9C
:102F2000C01B642823D8D8F80000C005F6D5206A55
:102F300010F4407021D0A98801F4407181421CD066
:102F4000206A1F49012220F440700A6000220A60B2
:102F50002062C00711D0FFF751FB074641F28838C5
:102F600008E000BFFFF74AFBC11B414502D903201F
:102F7000BDE8F883206A8007F4D5206A696820F4E8
:102F80004070084320621EB1E06920F08050E0618B
:102F90002878800705D56068A96820F44040084378
:102FA00060602878C00605D56068E96820F4800074
:102FB000084360600020DBE7001002400070004022
:102FC000400442422DE9F0470F46050061D0434ED0
:102FD000306800F00700B84209D2306820F00700DE
:102FE00038433060306800F00700B84251D128689B
:102FF0003B4C810712D5400703D5606840F4E06080
:1030000060602878000703D5606840F46050606015
:103010006068A96820F0F000084360602878C00765
:1030200028D06868012810D02168022810D08907AC
:1030300000292EDA616821F0030101436160FFF786
:10304000DDFA804641F288390DE021688903EFE717
:103050008901EDE7FFF7D2FAA0EB0801494502D953
:103060000320BDE8F0876068696800F00C00B0EBF1
:10307000810FEFD1306800F00700B8420BD93068FB
:1030800020F0070038433060306800F00700B84295
:1030900001D00120E5E72878400705D56068E96898
:1030A00020F4E060084360602878000706D5606877
:1030B000296920F4605040EAC100606000F038F8EF
:1030C0006168084AC1F30311515CC84006490860B1
:1030D00006480068FFF720FE0020C2E700200240FB
:1030E000001002400C6300081C00002014000020A7
:1030F0000448054900684968044AC1F30221515C4B
:10310000C84070471C000020001002401C630008EB
:103110000448054900684968044AC1F3C221515C6A
:10312000C84070471C000020001002401C630008CB
:103130000E4A51680E4801F00C03042B11D0082BE5
:103140000FD10C48C1F38343C903C05C0AD5516851
:10315000084AC1F34041921E515C054A5043B0FBFE
:10316000F1F07047044948437047000000100240E6
:1031700000127A00EA62000800093D002DE9F84FCC
:10318000040070D02078C04DC00749D06868C0F3F3
:103190008100012807D06868C0F38100022809D1A6
:1031A0006868C00306D52868800339D560680028A0
:1031B000E7D035E06068B0F5803F0BD010B1B0F5D6
:1031C000A02F11D0286820F480302860286820F4CF
:1031D000802002E0286840F480302860606890B168
:1031E000FFF70CFA06460AE0286840F480202860C1
:1031F000F0E700BFFFF702FA801B642873D8286845
:103200008003F7D50CE0FFF7F9F9064605E000BFAB
:10321000FFF7F4F9801B6428F0D828688003F7D4FE
:1032200020789A4E80074FF001094FF0000839D5F9
:10323000686810F00C0F07D06868C0F3810002289E
:1032400009D16868C00306D42868800714D52069AE
:10325000012808D110E02069B0B1C6F80090FFF74E
:10326000CDF9074605E00AE1FFF7C8F9C01B0228BF
:10327000C4D828688007F7D52868616920F0F8006D
:1032800040EAC10028600DE0C6F80080FFF7B6F9FB
:10329000074604E0FFF7B2F9C01B022823D82868CC
:1032A0008007F7D4207800072CD57948A169D9B1D7
:1032B000C0F80090FFF7A2F9074604E0FFF79EF977
:1032C000C01B02280FD8686A8007F7D571484FF4F1
:1032D000FA510068B0FBF1F0009000BF0098411E69
:1032E0000091FAD20EE080E0C0F80080FFF786F986
:1032F000074604E0FFF782F9C01B022875D8686A08
:103300008007F7D42078400760D5E8690027C0001F
:1033100008D4E86940F08050E861E869012700F0CE
:10332000805000905C480168C90513D40168834649
:1033300041F480710160FFF761F9824606E000BF49
:10334000FFF75CF9A0EB0A0064284ED8DBF8000018
:10335000C005F5D5E06801280AD008B1052813D0CA
:10336000286A20F001002862286A20F0040002E0A8
:10337000286A40F001002862E06841F2883B98B179
:10338000FFF73CF982460BE0286A40F0040028620F
:10339000EEE700BFFFF732F9A0EB0A0159455AD812
:1033A000286A8007F6D50CE0FFF728F9824605E089
:1033B000FFF724F9A0EB0A0159454CD8286A800789
:1033C000F6D41FB1E86920F08050E861E06988B365
:1033D0006968C1F38101022944D00228C6F86080DF
:1033E00004D0FFF70BF9044638E034E0FFF706F9A4
:1033F000074604E0FFF702F9C01B02282BD8286813
:103400008001F7D4206AB0F5803F05D16868A168D3
:1034100020F4003008436860D4E908010843696873
:1034200021F4741108436860C6F86090FFF7E6F86D
:10343000044606E025E000BFFFF7E0F8001B022885
:1034400009D828688001F7D51BE000BFFFF7D6F840
:10345000001B022802D90320BDE8F88F28688001EC
:10346000F4D40EE00128F7D06868226A00F48031B5
:10347000914204D1616A00F47010884201D00120A9
:10348000EAE70020E8E700000010024000004242A6
:10349000800442421C0000200070004010B5401E15
:1034A000B0F1807F01D3012010BD4FF0E0246061B6
:1034B0000F21601701F005FF0020A06107202061A7
:1034C000002010BD70B590F83C20012A26D00124C0
:1034D00080F83C40022280F83D2003685A689D68CD
:1034E00022F070060A6832435A600D4B02689A4215
:1034F00008D0B2F1804F05D00A4B9A4202D00A4B55
:103500009A4204D1496825F080031943916080F8FC
:103510003D40002180F83C10084670BD022070BD7F
:10352000002C0140000400400008004010B50400D9
:1035300003D094F83D0010B107E0012010BD002039
:1035400084F83C00204600F01FF8022084F83D007B
:10355000211D206801F0E0FB012084F8460084F87A
:103560003E0084F83F0084F8400084F8410084F86D
:10357000420084F8430084F8440084F8450084F84D
:103580003D00002010BD000008B50068B0F1804F7C
:1035900008D10548C16941F00101C161C06900F06D
:1035A0000100009008BD00000010024070B5044604
:1035B00090F83C000025012817D0012684F83C60D3
:1035C000022084F83D002068826822F0770222F40D
:1035D0007F4282600868502838D00DDC20284FD008
:1035E00005DC90B3102811D14AE0022070BD3028CC
:1035F00046D040280AD13BE060282FD070280DD05B
:10360000B0F5805F03D0B0F5005F12D0012584F8DB
:103610003D60002084F83C00284670BDCB68D1E9AD
:103620000121206801F0C1FB2068816841F0770129
:1036300009E0CB68D1E90121206801F0B6FB2068E0
:10364000816841F480418160E1E719E0CA68496816
:10365000206801F05FFC5021206806E0CA684968D4
:10366000206801F068FC6021206801F0A8FBCEE72B
:10367000CA684968206801F04DFC40212068F4E7E1
:10368000226801461046F0E710B586B0002100918F
:103690000191029103910068B0F1804F2BD117483E
:1036A000816941F008018161816901F0080104919B
:1036B000816941F0040181618069022400F0040005
:1036C000049040F60840CDE9000469460C48039494
:1036D000FEF796FEA003CDE900046946094803946D
:1036E000FEF78EFE0848416821F4407141F0E06128
:1036F00041F44071416006B010BD0000001002406E
:10370000000C0140000801400000014070B5044673
:1037100090F83C0000260D4601280FD0012084F8C7
:103720003C006AB1042A1DD0082A2FD00C2A3FD0B1
:103730000126002084F83C00304670BD022070BD98
:10374000206801F045FB2068816941F00801816132
:103750002068816921F004018161206881692A69FA
:10376000114311E0206801F05BFB2068816941F49E
:10377000006181612068816921F480618161206834
:1037800081692A6941EA02218161D2E7206801F05A
:1037900073FB2068C16941F00801C1612068C169FB
:1037A00021F00401C1612068C1692A69114311E057
:1037B000206801F08DFB2068C16941F40061C1619E
:1037C0002068C16921F48061C1612068C1692A69EA
:1037D00041EA0221C161ACE710B5040003D094F8BE
:1037E0003D0010B107E0012010BD002084F83C002E
:1037F000204600F01EF8022084F83D00211D2068BC
:1038000001F08AFA012084F8460084F83E0084F82A
:103810003F0084F8400084F8410084F8420084F8B6
:10382000430084F8440084F8450084F83D000020FB
:1038300010BD704710B50446022249B104290ED0CC
:10384000082913D094F84100012816D0012010BD9A
:1038500094F83E000128F9D184F83E200FE094F856
:103860003F000128F2D184F83F2008E094F840009E
:103870000128EBD184F8402001E084F841200122A6
:10388000206801F085FA0F492068884203D1426C14
:1038900042F4004242642068884208D0B0F1804F70
:1038A00005D00949884202D00849884204D181687C
:1038B00001F00701062903D0016841F00101016010
:1038C000002010BD002C0140000400400008004012
:1038D00070477047F8B5016804460868CA684B69C4
:1038E00010F00F0F4FF0000559D003F0010602F45D
:1038F0009077374365D0C10705D0D10503D5616CFA
:1039000041F001016164410705D5D90703D0616C1D
:1039100041F002016164810705D5D90703D0616CCC
:1039200041F004016164010707D502F02001314331
:1039300003D0616C41F008016164616C00293AD0E8
:10394000800604D5900602D5204601F07AFB206857
:103950004069616CC0F38010090700D460B3204651
:1039600001F048FB20684069400621D520681430EA
:1039700050E8001F21F0400140E80012002AF5D174
:10398000E06BA8B16D494163E06BFEF7DBFC0028FA
:1039900011D0E06B416B01B0BDE8F04008478306F1
:1039A0000FD593060DD52046BDE8F84001F049BB80
:1039B0002046FFF78EFFF8BD2046FFF78AFF6564BB
:1039C000F8BD266B2023012E7CD1C6067AD5D606FB
:1039D00078D508684868009048694FF002064006AC
:1039E00040D5E16B086840680004000CE8D0A28D67
:1039F0008242E5D9E085886920282DD020680C30E6
:103A000050E8001F21F4807140E80012002AF5D12F
:103A10002068143050E8001F21F0010140E8001236
:103A2000002AF5D12068143050E8001F21F0400131
:103A300040E80012002AF5D184F84230256320685E
:103A40000C3050E8001F21F0100140E80012002A5D
:103A5000F5D1E06BFEF752FC6663A08DE18D401A54
:103A600081B22AE0A08DE18D401A81B2E08D00285C
:103A7000A6D00029A4D022680C3252E8000F20F40E
:103A8000907042E80007002FF5D12068143050E80C
:103A9000002F22F0010240E80027002FF5D184F822
:103AA0004230256320680C3050E8002F22F01002CD
:103AB00040E80023002BF5D166632046FFF708FF9E
:103AC000F8BDFFE705062BD5150629D594F841006A
:103AD0002128F5D1A068B0F5805F01D12069B0B18F
:103AE000206A411C2162216800784860E08C401EF9
:103AF0000004000CE084E3D12068C16821F080015B
:103B0000C1602068C16841F04001C160D8E7206A07
:103B10000088C0F308004860206A801C2062E5E746
:103B20004006CDD55006CBD5CA68204622F04002CB
:103B3000CA6084F8413000F0EBF8C1E7E54F0008B7
:103B400070B5040004D094F84100002510B106E0DF
:103B5000012070BD84F84050204600F023F8242056
:103B600084F841002068C16821F40051C1602046FA
:103B700001F0C8FA2068016921F4904101612068D0
:103B8000416921F02A0141612068C16841F4005176
:103B9000C1606564202084F8410084F842006563B8
:103BA000002070BD30B585B00024009401940294CB
:103BB00003940068184988422CD11848816941F45F
:103BC00080418161816901F480410491816941F002
:103BD000040181618069124D00F0040004904FF4EB
:103BE000007000900220019003200390694628464F
:103BF000FEF706FC2815CDE9000469462846029424
:103C0000FEF7FEFB002201212520FFF7E1F8252029
:103C1000FFF7D1F805B030BD003801400010024078
:103C20000008014090F84230202B01D0022070475C
:103C300021B11AB10023036301F0C0BA012070471B
:103C400010B5094C00686168096888420AD121787A
:103C5000064800F099FD21466068BDE81040012249
:103C6000FFF7E0BF10BD0000300000204802002038
:103C70002DE9F843044690F84100984616460D4653
:103C8000202802D00220BDE8F88385B17EB1002053
:103C90006064212084F84100FEF7B0FCA6848146D0
:103CA000E684A0682027B0F5805F02D003E0012001
:103CB000E9E7206910B12E4600250EE000260CE051
:103CC0008021204601F095FAA8B9C6B116F8010B7B
:103CD00021684860E08C401EE084E08C4B464FF049
:103CE0000002CDF800800028EAD14FF040012046C4
:103CF00001F07FFA40B184F841700320C3E735F842
:103D0000020BC0F30800E3E784F841700020BAE733
:103D1000704700002DE9F041044640691F49884280
:103D200001D3042005E01E490844B0F1DE7F03D929
:103D300003202076BDE8F0811A4960681A4E1B4FB7
:103D40000025884202DA1A49884203D3B04215DAC4
:103D5000B84213D2607E10B9FEF750FCE061607E7D
:103D6000401CC0B26076142809D36068B04203DA00
:103D7000B84201D2257601E0022020766576607E89
:103D8000401E0228D6D2FEF739FCE169401A41F202
:103D900070718842CED96576CCE70000000088C3F8
:103DA000000060BFCDCCCC3FCDCCCC3D000080BF6F
:103DB000333313C0FEE7000038B50C466A460AA14B
:103DC0000CE000BFFCF758FCC0B2411E032902D230
:103DD000214600F0E5FE6A4603A10020FCF759FCED
:103DE0000028EFD138BD00002C3B000001684A6973
:103DF000D24352050FD46FF480624A61002140F82B
:103E0000301F202242738173026942F00402026172
:103E10000173012070470020704700002DE9F84F22
:103E20000446006889460B9D01689846174641F490
:103E3000806101602068016841F480710160009533
:103E40004FF0011B0022594620460A9B00F0E4F87F
:103E50004FF4007A40B120680068C00501D5C4F86D
:103E600040A00320BDE8F88F216809F0FE0008613A
:103E70002B46284920460A9A00F016F9F0BB206824
:103E80004169806900902A4620460A9900F0A2F90B
:103E900040B1206C04283AD12068016841F40071D7
:103EA000016034E0FEB2B8F1010F09D02168380A90
:103EB00008612A4620460A9900F08CF90028E8D1CA
:103EC000206806612A4620460A9900F083F90028F6
:103ED000DFD12068016841F4807101600095002203
:103EE000594620460A9B00F097F80028B3D1216874
:103EF00009F0FF0040F00100086100E007E02B46F8
:103F0000044920460A9A00F0CFF80028AAD00120E0
:103F1000A8E70000020001002DE9F843044600680C
:103F20000D46DDE9089701689846164641F4807110
:103F300001604B4600224FF001112046009700F02F
:103F40006BF848B120680068C00502D54FF40070D6
:103F500020640320BDE8F883216805F0FE000861B5
:103F60003B464A461549204600F09EF888B920682D
:103F70004169806900903A464946204600F02AF996
:103F800048B1206C042804D12068016841F4007114
:103F900001600120DEE7F5B2B8F1010F09D0216818
:103FA000300A08613A464946204600F013F90028D5
:103FB000E7D1206805610020CCE700000200010085
:103FC00070B516460D4604461EE02046FFF70EFF6C
:103FD00008B1012070BD681C16D0FEF70FFB801BD6
:103FE000A84200D885B920684069C04340070BD576
:103FF000002044F8300F20216173A073216941F043
:10400000200121612073E4E720684069C043400734
:10401000DBD4002070BD00002DE9F047984617461C
:104020000D460446C1F30746DDF820902AE000BFA4
:10403000B8F1FF3F26D0FEF7E1FAA0EB09014145B8
:1040400002D8B8F1000F1DD12068012E16D080696A
:1040500025EA00000004000C12D00020B84211D163
:10406000002044F8300F20216173A073216941F0D2
:104070002001216120730120BDE8F0874069E7E756
:104080000120EBE72068012E0AD0806925EA0000B4
:104090000004000C06D00020B842C9D00020EBE795
:1040A0004069F3E70120F7E72DE9F0479846164607
:1040B0000D4604464FF000094FF0200AC1F30747B0
:1040C00023E020684069C043400515D4206801689A
:1040D00041F40071016021686FF480604861C4F8A8
:1040E000309084F83DA084F83E90216C41F00401AA
:1040F000216484F83C9021E0701C06D0FEF77EFA23
:10410000A0EB0800B04203D816B1012F1FD021E068
:104110002068012F15D0806925EA00000004000CFA
:1041200018D000BF44F8309F84F80DA084F80E909A
:10413000216941F02001216184F80C900120BDE843
:10414000F087406925EA00000004000CEAD12068ED
:10415000406901E02068806925EA00000004000C45
:10416000AFD1ECE72DE9F041002590460E4604461C
:10417000202728E04069C043C0060CD454F8301B07
:104180006FF01000486144F810596777A577206AEE
:104190002062257714E0FEF731FAA0EB0800B04268
:1041A00000D886B920684069C04340060BD544F862
:1041B000305F6773A573206940F02000206125738C
:1041C0000120BDE8F08120684169C9434906D1D486
:1041D0000020F6E770B516460D4604461EE0204660
:1041E000FFF704FE08B1012070BD681C16D0FEF771
:1041F00005FA801BA84200D885B920684069C043F1
:1042000000060BD5002044F8300F20216173A07305
:10421000216941F0200121612073E4E720684069B1
:10422000C0430006DBD4002070BD000070B5164608
:104230000C4600F061F805463146204601F066FF65
:104240000446284601F01CFE314601F05FFF21467E
:1042500001F01CFD10F1FF4F04D2BDE8704002498F
:1042600001F056BE002070BD0000C84270B5044683
:104270004079012560B10226012805D0022803D02B
:1042800000206071607970BD104601F00DFF01D211
:104290006571F7E76671F5E72DE9F04101600446C5
:1042A0000271144800250F46058045801E465100C6
:1042B0004560022303223846FEF76AFA10B1002057
:1042C000BDE8F08165714FF07E5200212046FFF776
:1042D000CDFF20464FF40042002100F0CAFF01202C
:1042E000FEF77CF820460EB1B04701E000F032F84E
:1042F0000120E5E72400002010B5022100F057FA64
:10430000C008800010BD000010B500F009F8034996
:10431000B1F9021090FBF1F000B210BD24000020B2
:1043200010B5042100F043FA00B210BD10B503210E
:1043300000F03DFA01F0A4FD0349496801F0E8FDF1
:1043400001F066FD80B210BD240000200A46052160
:1043500000F08FBF70B50A4A05464FF480511180B6
:104360000A2050804007506043F6FF742846FFF74C
:10437000EDFF21462846BDE8704000F003B800007C
:10438000240000200A46002100F073BFF0B4451E4F
:10439000049E032D0FD2ECB2084D05EB04142160EE
:1043A000A280A360A6810021A1730121E173F0BC6A
:1043B000002100F0F5BBF0BC70470000E8010020D0
:1043C00010B5084C08494FF480726060A1F11000EC
:1043D00000F028F821466068BDE810400122FFF790
:1043E00021BC000030000020580200202DE9F041DF
:1043F0000125094E094F8046002407EBC400325DB9
:10440000074B4146FFF748FF00B90025641C032C09
:10441000F3DB2846BDE8F08120000020D001002019
:104420005543000839B132B1002303604360C0E94D
:104430000221184670474FF0FF307047401E0B4670
:10444000032810D2002B0ED0C0B200EB400106486A
:1044500040F8213000EB81000121426001721146D9
:104460001846FFF7E7B970471802002010B5402141
:10447000012000F03BFB4121022000F037FB4421EA
:10448000BDE81040032000F031BB000038B54FF408
:1044900080500D4C42002346009019460120FFF742
:1044A00075FF4FF4804023464200009019460220D9
:1044B000FFF76CFF01200090234680220349032070
:1044C000FFF764FF38BD0000000C01400008014008
:1044D00010B5002207490120FFF7B0FF042205496B
:1044E0000220FFF7ABFF0822BDE81040014903207E
:1044F000FFF7A4BF3401002010B500200E4A01468A
:1045000001EB810302EBC3031B7E0BB9401CC0B25D
:10451000491CC9B20329F3D34FF00002114630B150
:1045200006A000F08EFA08490020087010BDBDE812
:10453000104006A000F085BA380000206C61707051
:10454000696E3A310A000000000000206C61707052
:10455000696E3A300A00000000200649024600BF9A
:1045600000EB800301EBC303401CC0B21A760328A2
:10457000F6D37047380000203EB50024114800945F
:10458000019402940E49846001600473047501254E
:1045900005614FF460214460C161FDF7DDFC08B1A5
:1045A00072B6FEE707200094CDE901506946054840
:1045B000FDF750FC002801D072B6FEE73EBD0000BA
:1045C00000240140B00000202DE9F04786B000240F
:1045D0002D480094019402940394816941F01001E4
:1045E0008161816901F010010491816941F020012C
:1045F0008161816901F020010491816941F0040128
:104600008161816901F004010491816941F008012F
:1046100081618069DFF8748000F008004FF4005574
:104620000490002229464046FDF7E2FFDFF8609043
:104630000022E0214846FDF7DBFFDFF858A04FF2EB
:104640000107002239465046FDF7D2FF00950226A9
:1046500001250396CDE9015469464046FDF7D0FE99
:10466000E020CDE90005CDE9024669464846FDF760
:10467000C7FE00970396CDE9015469465046FDF701
:10468000BFFE06B0BDE8F0870010024000100140F8
:1046900000080140000C014010B58EB000240794C2
:1046A000089409940A940B941C2168460C94FCF716
:1046B00067F82A484FF0804101604721C0E90114A2
:1046C00044F61F61C0E903148461FEF72FFF08B1AF
:1046D00072B6FEE74FF48050079007A91F48FEF717
:1046E00065FF08B172B6FEE71C48FFF775F808B120
:1046F00072B6FEE70B940BA918480C94FEF7E2FE85
:1047000008B172B6FEE76020CDE9000402940022F1
:10471000694612480494FEF7F9FF08B172B6FEE745
:10472000042269460D48FEF7F1FF08B172B6FEE7B4
:10473000082269460948FEF7E9FF08B172B6FEE7AC
:104740000C2269460548FEF7E1FF08B172B6FEE7A4
:104750000248FEF799FF0EB010BD000034010020A2
:10476000FEE7FEE70449087001208870C870002148
:10477000024800F045BA00002C0000203C02002056
:1047800070470021FFF718BB10B5036884685A1CF6
:1047900092B2944200D800224468944202D14FF071
:1047A000FF3010BDC468E1540260002010BD1FB589
:1047B0004FF47A74022303AA8DE81C000A460068AD
:1047C00001238021FEF79AF8BDF80C0004B040BA2E
:1047D00010BD000030B585B00C4605461421684672
:1047E000FBF7CEFF601E032822D2154800EBC4045D
:1047F000083C2046FFF780FD01F042FB0090204678
:10480000FFF782FD01F024FB01902046FFF78EFDAB
:1048100001F036FB02900B4A0B492046FFF706FDDC
:104820000246039009492046FFF720FD8DF810004D
:10483000142269462846FBF771FF05B030BD000021
:10484000D001002000403545004083450000704104
:104850002DE9F04FDFF8A4B095B0002404EB8409F3
:104860000BEBC9055E46287EB0F1000A07D0BAF10D
:10487000020F08D095F82000012837D009E0204920
:104880000020085503E01E486421015533E085F8F7
:104890002000B346686901F059F906468846686801
:1048A00001F054F905460F465BF8390001F04EF966
:1048B00002460B46504600F027FD009002A9104822
:1048C00081E8AC00CDE90668035D621C0DA108A873
:1048D000FBF7AAFC08A800F075FB641C032CBDDBE9
:1048E00011A000F06FFB15B0BDE8F08FE86801F093
:1048F0008FFA034908550020C9E70000380000205E
:1049000007000020503A25642C25253A25642C43C5
:104910003A25732C563A252E32662C493A252E32EA
:10492000662C543A252E31660A00000030B591B04D
:104930000546002100F034F9294607A8FFF74AFF91
:1049400002212846079C00F02BF96420FDF746FD64
:1049500029460CA8FFF73EFF14220CA902A8FBF77A
:10496000DDFE0021284600F01BF94FF4FA70FDF738
:1049700035FDDDE9021020F00045204601F0C6FBC0
:10498000294601F083F9074901F0C2FA064901F00E
:104990007DF90649884202DD012011B030BD0020BA
:1049A000FBE7000000007A4400002041000048437B
:1049B00070B5214CA078002820D0FDF71FFE1F4EB7
:1049C00000253168401A7168884217D3FDF716FE3A
:1049D000306001203072E0784FF47A6601280ED002
:1049E00002280BD1A078012820D0022821D003284A
:1049F00004D16178032000F095F8A57070BDA0780F
:104A0000012805D0022805D00328F7D12178F1E745
:104A100021780CE021780DE000F084F83146074859
:104A200000F0EEF8A078401CA07070BD6178012005
:104A3000F2E761780220EFE72C0000203C02002022
:104A4000704700B58DB051EA02030DD0002909D09E
:104A50007AB113460A4601466846FBF7E5FB68460D
:104A600000F0B0FA0DB000BD0DB05DF804EB00F041
:104A7000A9BA0A4601466846FBF7D6FBEFE70000F5
:104A80007CB501AA16A126E06A4616A1FBF701FE35
:104A900004466A4613A10020FBF7FBFDC4B1B8B180
:104AA000FBF7EAFDC5B26A460FA120460CE000BF45
:104AB000FBF7E2FDC0B2411E032902D2294600F0F5
:104AC00031F86A4608A10020FBF7E3FD0028EFD18A
:104AD00001AA03A10020FBF7DCFD0028D4D17CBD96
:104AE0003B0000002E0000002C000000401E0328A8
:104AF00002D2024AC0B211547047000020000020C8
:104B000070B50C4601461546012000F049F82146D3
:104B1000022000F045F82946BDE87040032000F06F
:104B20003FB8000070B5401E032823D2C0B2164C17
:104B300000EB400604EB8605287A00281AD0B42939
:104B400000D9B421084601F09BF9104901F09EF804
:104B50000F4901F0DDF901F05BF900F5FA7081B25F
:104B600054F826006A6832B1042A07D00068082A7F
:104B700007D0016470BD0068416370BD0068816347
:104B800070BDC16370BD00001802002000003443F6
:104B90000000FA44002211461046FFF7B1BF0000A2
:104BA00010B5401E032827D2144AC0B202EB0014ED
:104BB000E07B002820D081B1012913D002291BD12C
:104BC000A173A18800222068FDF712FDA189A068C9
:104BD0000122BDE81040FDF70BBDA173A1880022A2
:104BE000206803E0A173A18801222068FDF700FD81
:104BF000A1890022A068ECE710BD0000E8010020B8
:104C000010B504464160FDF7F9FC206000202072D9
:104C100010BD00000D480278032A13D20C4800781A
:104C200003280FD20B4908700B4802700B4B04226B
:104C30001A7009780078491CCAB2401CC1B208A099
:104C4000FFF7FFBE0CA000F0BDB90000020000207D
:104C500001000020050000200600002000000020C8
:104C6000646F6970696E3A25642C6C617970696E45
:104C70003A25640A000000004B686F6E6720746874
:104C80006520646F692070696E206C7563206E61A9
:104C900079210D0A00000000FEF724B830B593B06A
:104CA00028216846FBF76CFD14210AA8FBF768FD74
:104CB000002501200F9510951195010412958DE89E
:104CC000230004904FF4E010CDE90810022407946B
:104CD0006846FEF753FA08B172B6FEE70AA90F203C
:104CE00081E831004FF48060CDE90D0502210AA86A
:104CF000FEF768F908B172B6FEE74FF40040119074
:104D00000F940FA8FEF7E8F8002801D072B6FEE76E
:104D100013B030BD70470000F0B50268194B1A4C53
:104D20001A4D4FF08047984205D0B84203D0A042B8
:104D300001D0A84203D122F070064A68324398425B
:104D400005D0B84203D0A04201D0A84203D122F43A
:104D50004074CA6822434C6922F0800222430260F8
:104D60008A68C2620A688262984201D10969016355
:104D7000012141610169C90703D0016921F00101E5
:104D80000161F0BD002C014000040040000800401B
:104D900010B501F01F030121046A99408C4304629D
:104DA000016A9A401143016210BD10B5846842EA5D
:104DB000032224F47F440A432243826010BD8268A8
:104DC00022F070020A4342F0070181607047000040
:104DD00030B5036A026A22F0010202624268846905
:104DE00024F073050C682C4323F002058B682B43D9
:104DF0000A4DA8420BD123F00805CB6822F440727B
:104E00002B434D6923F0040315438A692A4342600A
:104E1000846149684163036230BD0000002C014099
:104E200030B5026A036A23F01003036243688469A1
:104E30000D6824F4E64444EA05248D6822F020023B
:104E400042EA05120B4DA8420ED1CD6822F0800235
:104E500042EA05124D6923F4406343EA85038D69F4
:104E600022F0400243EA850343608461496881631C
:104E7000026230BD002C014030B5036A026A22F4A0
:104E8000807202624268C46923F4007324F07305DF
:104E90000C682C438D6843EA05230C4DA8420ED1C3
:104EA000CD6823F4006343EA05234D6922F44052A0
:104EB00042EA05128D6923F4806342EA05124260DA
:104EC000C4614968C163036230BD0000002C014029
:104ED00030B5046A026A22F4805202624268C369F1
:104EE0000D6823F4E64343EA05238D6824F4005457
:104EF00044EA0534064DA84204D14D6922F48042AB
:104F000042EA85124260C36149680164046230BDAF
:104F1000002C014010B5036A046A24F00104046205
:104F2000846924F0F00444EA021423F00A020A43DC
:104F30008461026210BD10B5036A046A24F0100493
:104F40000462846923F0A00324F4704444EA02322A
:104F500043EA01118261016210BD00000948017835
:104F600003290BD208480170084A03211170007808
:104F7000401CC1B2002206A0FFF763BD07A000F0ED
:104F800021B80000010000200500002000000020E2
:104F90006C617970696E3A25642E0A004B686F6EF9
:104FA0006720636F2070696E2073616E2073616E7D
:104FB00067206465206C6179210D0A000221FEF7EB
:104FC000FBBE000010B50446FBF789FB82B2044823
:104FD00021464FF0FF334068BDE81040FEF748BE61
:104FE0003000002010B5406A0021C185C184FEF761
:104FF00070FC10BD01680C3151E8002F22F4907252
:1050000041E80023002BF5D10168143151E8002F4D
:1050100022F0010241E80023002BF5D1016B0129A8
:1050200009D101680C3151E8002F22F0100241E84B
:105030000023002BF5D1202180F8421000210163CC
:10504000704708B590F84210222901D0022008BD0F
:1050500082684FF480539A4201D1016921B1816A7B
:105060009A421BD04AB10AE00268816A5268C2F3D0
:1050700008020A80816A891C08E0026972B102682C
:10508000526802F07F020A70816A491C8162C18DF8
:10509000491E0904090CC18503D01BE0026852684F
:1050A000F1E70168CA6822F02002CA600168CA6894
:1050B00022F48072CA6001684A6922F001024A61E2
:1050C000202180F8421000214163026B012A03D0A5
:1050D000FEF7B6FD002008BD016301680C3151E800
:1050E000002F22F0100241E80023002BF5D10168C7
:1050F0000A68D20602D50A6849680091818DFEF7D8
:10510000E7FBE7E770B5044600680169E26821F44F
:105110004051114301612169A06808436169084356
:105120002168CA6841F20C639A430243CA6020684E
:105130004169A26921F44071114341611E4920680F
:10514000884202D1FDF7E4FF01E0FDF7D1FF00EB5B
:10515000C00101EB0012606864218000B2FBF0F333
:10516000B3FBF1F36FF018067343B2FBF0F5B2FB3B
:10517000F0F605EB8305322303EB0515B5FBF1F5DE
:10518000B6FBF1F605F0F00505EB0615B2FBF0F6FF
:10519000B2FBF0F0B0FBF1F06FF01802504306EBF9
:1051A000800003EB0010B0FBF1F0216800F00F006D
:1051B0002844886070BD000000380140816282850B
:1051C000C28500214164222180F84210016921B189
:1051D0000168CA6842F48072CA6001684A6942F094
:1051E00001024A610068C16841F02001C1600020ED
:1051F00070472DE9F843984617460D460446089E29
:1052000024E0701C22D0FDF7F9F9A0EB0800B042B1
:105210001AD8CEB12068C168490717D5802D15D09E
:10522000402D13D00168C94309070FD40168002538
:10523000406800902046FFF7DDFE0820606484F897
:1052400040500120BDE8F8830320FBE72068006898
:1052500035EA000004D00020B842D2D00020F1E7A7
:105260000120F9E70148FEF735BB00007C01002072
:10527000FEE71FB5130A8DF80C308DF80D204FF4A2
:105280007A74022303AA8DE81C000A4600680123F1
:105290008021FDF761FC04B010BD490050EAC12037
:1052A00018BF04204A0D18BF40F0010040F2FF7201
:1052B000B2EB515F08BF40F00200012808BF052093
:1052C00070470907090E002804DB00F1E02080F890
:1052D0000014704700F00F0000F1E02080F8141D6A
:1052E000704700214FF07E5000F0D0BC012100F04B
:1052F000B6BF0021084600F0C9BC30380A2801D2E8
:10530000012070470020704705280ED2DFE800F02A
:10531000030507090B0006A0704706A0704706A00A
:10532000704706A0704706A0704706A070470000AF
:105330005400000053000000440000004E00000034
:105340004C000000520000002DE9F0410026A0F5BD
:105350000001B1F1FE4F7DD200F500226FF07E0119
:1053600001EBE251C2F3025477184FF07E52A0EBEA
:10537000C15602EB045557EA040047D0294630468F
:1053800000F010FC80462946304600F0BFFE414642
:1053900000F07CFC0546014600F0BAFD8046454918
:1053A00000F0B6FD444900F0FDFB064641462846A4
:1053B00000F0AEFD314600F0ABFD0646384600F089
:1053C00047FD07463D4900F0A3FD3D49794451F8AA
:1053D000241000F0E7FB314600F0E4FB0646012113
:1053E000284600F03CFF314600F0DCFB054638461D
:1053F000344900F08DFD3449794451F8241000F00F
:10540000D1FB2946BDE8F04100F0CCBB4FF07E5106
:10541000304600F07BFE05462C4900F079FD2C4912
:1054200000F0C0FB294600F073FD2A4900F0BAFBEA
:10543000294600F06DFD6FF0824100F0B3FB044699
:105440002946084600F064FD214600F061FD014652
:10545000284600E003E0BDE8F04100F0A3BB4FF0B8
:105460007F42B2EB400F03D2BDE8F041FFF73EBFF1
:10547000B0F1FF4F08BFBDE8F081B0F1004F06D991
:105480000120FBF7F2F9BDE8F041FFF732BF30F041
:10549000004105D06FF01606172100F0E0FE5BE733
:1054A0000220FBF7E2F9FFF71CFF80F00040BDE8A7
:1054B000F081000066F1CC3EAAAA2A3FF4FD05382F
:1054C000101000000070313FC40F000021ED423E7B
:1054D0000A1180BEC1ABAA3EB8B0FDF70BFCFFF7C6
:1054E000DDFBFFF771F8F848F64900240160F74941
:1054F000C0E901144FF48041C0E903414461846173
:10550000C4610462FDF780F808B172B6FEE7FFF7E8
:1055100033F8FFF7C1F8EC48ED499C3001604FF4D7
:10552000E131C0E901140C21C460C0E90441846187
:10553000C461FEF705FB08B172B6FEE7E2483038F9
:10554000FCF71CFCE0489C30FEF73AFFFEF79EFF9C
:10555000FFF720FBFEF7BCFFB420FFF703F9FEF7CF
:10556000FBFFFEF783FFD848FEF740FF20B94FF45A
:105570000051D848FDF734F8D34D4FF4FA70E435B4
:105580006860FDF73BF82860A2462C72D2A0FFF7B6
:1055900019FDDFF85883DFF858B300BFFFF708FAAA
:1055A00064216846FCF720FB48B1694619A8FBF75F
:1055B00072F819A8FCF780FACEA0FFF703FDFDF7FB
:1055C0001DF8C14CE4342168411A6068814276D3E9
:1055D000FDF714F8206001202072BB4D0024C74F56
:1055E000B5F1A805B84857F824103038FCF760FB2F
:1055F00004EB840105EBC106641C7061E1B232A8C2
:10560000FFF7E8F83046142232A9FBF787F8E4B236
:10561000032CE7D304218BF801108BF802104FF014
:1056200000099BF800004E46022802D101218BF8A8
:1056300000100024A44804EB8401A83800EBC10743
:105640003D7E35B1022D09D097F82000012811D0F8
:1056500018E0A748C01D00F804A026E09BF8001041
:105660005846012901D102210170A1486421C01DC1
:1056700001550BE0F86800F0CBFB9D49C91D0855AA
:1056800087F820A0012D01D0022D0ED19848C01D11
:10569000005D484509D39BF800205946012A01D1F5
:1056A00002220A7081468BF80140354302D18BF803
:1056B00002400126641C032CBCDBFFF7C9F89BF8F1
:1056C0000000D9460A2834D2DFE800F00534579F9D
:1056D000C6F1F0F2EEED7C4D0024A83D04EB84060B
:1056E00005EBC607387E08B104281ED1601CC0B285
:1056F000B421FFF717FA387E042805D155F8361083
:10570000414501DA87F818A055F8361041450CDDFF
:10571000FF204D4689F80300FCF770FFE8602C710C
:1057200077A0FFF74FFC0820BBE0641CE4B2032C19
:10573000D4D3A4E1B420FFF715F84D46DFF88891E3
:105740000024671EA9F1A809661CF0B20021FFF72A
:1057500027FA04EB840159F83110414509DDEF7057
:10576000FCF74CFFE8602C7165A0FFF72BFC0820CC
:105770002870F4B2032CE7D381E1B420FEF7F2FFE6
:10578000514D0024B5F1A80504EB840605EBC600D5
:10579000017E05292AD2DFE801F0031A2E202E000F
:1057A000601CC0B20021FFF7FBF955F836004045F8
:1057B0001CDDFF204E4689F80300FCF71FFFF06058
:1057C00034714FA0FFF7FEFB082030700EE0FEF7AB
:1057D000A1FA601CC0B2012106E04C4A4169914225
:1057E0000FDA012101760CE0FFF7DAF9641CE4B26C
:1057F000032CC9D343E155F83620424501DA80F83D
:1058000018A0601CC0B20021EEE799F805004C46D4
:10581000401CC0B2B421FFF785F960790021401C1B
:10582000C0B2FFF7BDF9607900EB80012648A838C7
:1058300050F8312042459FDA627902EB820200EB98
:10584000C20080F818A060792821401CC0B2FFF780
:1058500069F90420607182E000244D46A8798442F1
:1058600004D1A879401CC0B2B42102E0601CC0B2CF
:105870002821FFF757F9641CE4B2032CEED3A87972
:1058800000EB80011048A83850F83110414509DD7F
:10589000FF20E870FCF7B2FEE86019A0FFF792FB6A
:1058A00005202870EBE087E05BE001E0CEE09CE0C3
:1058B00000254C46607985422AD16079401CC0B2EF
:1058C000B42128E000540040E0000020A086010040
:1058D000003801400010014048652074686F6E6711
:1058E000206B686F6920646F6E6700000000484499
:1058F000000000206F6B0D0A00000000DC62000851
:10590000636865636B70696E0A00000000004842BE
:10591000681CC0B22821FFF705F96D1CEDB2032DFC
:10592000C8D360790021401CC0B2FFF739F9607913
:1059300000EB80016A4850F8312042453BDA627939
:1059400002EB820200EBC20080F818A060792821E7
:10595000401CC0B2FFF7E6F804206071A07102207D
:105960008CE099F803004C4601280BD0E07838B160
:10597000FCF744FEE168411A41F2883081427ED949
:10598000092015E02079564D00EB800105EBC1019F
:10599000FCF7E0F8207900EB800005EBC000007E0A
:1059A000012801D00228EBD12820FCF70DF90220B4
:1059B0002070FF20E07062E099F804004C46401C23
:1059C000C0B2B421FFF7AEF82079454900EB800062
:1059D00051F83030434552DA01EBC00080F818A08E
:1059E0000420207184F800A049E099F803004C4697
:1059F00001280AD0E07838B3FCF700FEE168411ACC
:105A000041F2883081421FD839E0A079344D00EB53
:105A1000800005EBC001A079FCF79CF8A07900EBB1
:105A2000800005EBC000007E012807D0A07900EBC4
:105A3000800005EBC000007E022805D1A079282156
:105A4000401CC0B2FFF76EF80720B1E799F80600D6
:105A50004C46401CC0B2B421FFF764F8A07900EBBB
:105A600080011F4850F83120424508DAA27902EB44
:105A7000820200EBC20080F818A004202070184EAB
:105A8000002400BF04EB840006EBC005287E01283B
:105A900021D1FCF7B3FD696A401A124988421AD332
:105AA000671CF8B20021FFF77BF86420FCF796FC36
:105AB000F9B232A8FEF78EFE2846142232A9FAF770
:105AC0002DFEFCF79BFD6862012085F82000F8B2EE
:105AD0000121FFF765F8641CE4B2032CD2D35DE525
